:020000040800F2
:10000000D040002001010008050100080701000898
:10001000090100080B0100080D01000800000000A4
:1000200000000000000000000000000011010008B6
:100030000F0100080000000087020008717300082B
:100040007B790008376F000895730008E571000898
:10005000A15500085D7100088D540008275500085F
:10006000295500082B5500082D550008354E00086D
:10007000374E0008394E00083B4E00083D4E000840
:100080003F4E0008414E00085D4D0008777900089A
:1000900079790008314E0008334E00082F550008CA
:1000A000977300089D7300089B73000899730008FC
:1000B0009F730008A1730008A37300081F5C000869
:1000C0001D5C0008235C0008215C0008E771000843
:1000D000E9710008A5730008B1760008A17700084F
:1000E00025550008E371000875790008000000003C
:1000F0000000000000000000000000000000000000
:1001000004480047FEE7FEE7FEE7FEE7FEE7FEE7FE
:10011000FEE700001901000800F002F800F075F891
:100120000AA090E8000C82448344AAF10107DA4552
:1001300001D100F06AF8AFF2090EBAE80F0013F02F
:10014000010F18BFFB1A43F001031847448B00004E
:10015000648B00000A444FF0000C10F8013B13F0D0
:10016000070408BF10F8014B1D1108BF10F8015B10
:10017000641E05D010F8016B641E01F8016BF9D103
:1001800013F0080F1EBF10F8014BAD1C0C1B09D15A
:100190006D1E58BF01F801CBFAD505E014F8016BCC
:1001A00001F8016B6D1EF9D59142D6D3704700005E
:1001B0000023002400250026103A28BF78C1FBD870
:1001C000520728BF30C148BF0B607047642903F055
:1001D0003B86632904F06580002070471FB507F057
:1001E000FBFC9DE8030004F089FB04F065FA0400C1
:1001F0000020002107F0DAFC401C606004F068F980
:100200001FBD10B504F0CDF910BD04F030FA114651
:10021000FFF7E4FF07F00CFC04F046FB03B4FFF724
:10022000F0FF03BC04F0FCFC02480349034A044B02
:1002300070470000D0380020D0400020D03C002083
:10024000D03C0020EFF3108072B6704780F3108826
:10025000704724484FF0FF010170002080F30988A7
:100260001D480121017020484FF08051016062B6A5
:10027000FEE71D484FF08051016070471A484FF06B
:10028000805101607047EFF3098028B1203880E881
:10029000F00F12490968086000B50A4880475DF808
:1002A00004EB0B480B490A7802700C480C490A68A9
:1002B0000260106890E8F00F203080F309884EF05B
:1002C000040E70472968000841630008D605002025
:1002D000D8050020D9050020DB050020F805002006
:1002E0000006002022ED00E004ED00E072B6704749
:1002F00062B67047EFF3108072B6704780F31088D3
:10030000704700002DE9FC47050073D001F0ACF9FF
:1003100000F0F2FF384E0746B6F9229001F01FF8C0
:10032000B18C8046081AB0843BE047F6FF7128463E
:1003300001F065F882460146284601F078F8044647
:10034000B08D00F0030001283ED0022838D00020F4
:10035000718C6A46081A7084ADF80000611E08446A
:10036000ADF80400B08CADF80200791E0844ADF879
:1003700006005146284601F071F8BDF80200B0842D
:100380005146284600F0E7FD054428780A281DD08C
:100390000D281BD0BDF8000020447084287818B1C7
:1003A0006D1C28780028C0D1B18C01EB0800B08406
:1003B000B08D20F00300B085BDE8FC4701F04CB9DA
:1003C00004EBD4704010C3E72046C1E7B08D00F0C5
:1003D000030001280BD0022809D0308C70842878C3
:1003E0000A28DBD1B08C3844B084D7E702E0A6F805
:1003F0002290F4E7BDE8FC87241C002070B5064677
:100400000C46154601F030F9044844848584304692
:10041000FFF778FFBDE8704001F01EB9241C0020F2
:1004200010B5044601F020F9204601F019FBBDE8A3
:10043000104001F011B910B5044601F015F920463D
:1004400001F01AFBBDE8104001F006B970B5054E89
:100450000446B56901F008F904B1B46101F0FCF893
:10046000284670BD241C00202DE9F0433F4D044672
:1004700087B0A869B5F92A802146806900F06BF839
:10048000002847D041680088201A01EBC00440468C
:10049000A67801F067F9814662680120CDE902067D
:1004A0002B46CDE90423A869C37D827DCDE90023D5
:1004B000037D2278B5F92410B5F9220001F0BBF9CB
:1004C000A869467D077DBE4219D9C07D4643474392
:1004D000B8F1020F13D000F0ACFC804600F093FCA2
:1004E000FFF7A9FFB5F9220021784218B5F92410C9
:1004F0008B19394401F07FF94046FFF79CFF4846CD
:1005000001F030F9AA69B5F922006178927D01FB0A
:100510000200688407B0BDE8F08370B5134C05464F
:100520002946A069806900F016F8002807D04168C4
:100530000088281A11F83000A169897D484370BDF0
:1005400001200880704710B5806900F004F8002889
:1005500000D0012010BD06E002888A4202D84288FD
:100560008A4202D280680028F6D17047241C0020FD
:100570002DE9FC4104460D4616461F4601F074F86D
:10058000042001F0EFF833498046086C496C0444BC
:1005900006440D440F44ADF80040ADF80460ADF8DA
:1005A0000250ADF80670684601F0F1FE07E03B46E8
:1005B00032462946204601F01EF901F0C1FE00280E
:1005C000F5D1404601F0CEF801F046F8BDE8FC81D7
:1005D00010B50021084600F04FFC40F6FF72504273
:1005E000BDE8104013460146C2E770B51A492E20F7
:1005F000087005F0EBFA1948164C0068251D2561B6
:10060000A064201D01F058FA1548A0651548256121
:10061000A0610120207502F01FF9A087032084F853
:100620005C006FF0704020636063002001F018FAF6
:100630006FF07F4001F020FA0B48E06101F05CF8B8
:1006400001F0EDF9044602F08BF801F05BF820466A
:1006500070BD0000241C00207D060020D406002070
:10066000E87C0008988A000854830008FC4B30B4EA
:10067000B3F902408C4210DCB3F906408C420CDB2B
:10068000B3F90040844208DCB3F90430834204DB50
:10069000F44B1B685B6A30BC184730BC7047F04AAB
:1006A000B2F902308B420DDCB2F906308B4209DB25
:1006B000B2F90030834205DCB2F90420824201DB4A
:1006C00005F0E3BC00207047E54A10B5203A906879
:1006D000002813D041681369591A02F118031980D0
:1006E00084685269121B5A80046824882144491E78
:1006F0009980006840881044401ED88010BDD849B9
:1007000010B52039097851B128B1D549083900F020
:10071000C3FB002802D000F098F9012010BD002092
:1007200010BD00F0ADB910B500F09EFFCC492039E6
:100730008878401E10F0FF00887001D100F0A0F909
:10074000BDE8104000F088BF10B500F08DFFC4492F
:1007500020398878421C8A7008B900F076F9BDE823
:10076000104000F079BF2DE9F047064600F07CFF0D
:10077000BB4F203FB868814686422FD0356804249D
:10078000E8680068042800DC0446DFF8D48208F139
:10079000080807E0E868806850F8240001F058F97C
:1007A00028F81400641EF5D200F04FF928886988F3
:1007B00048434400F868844205D0B7F9040000F0CB
:1007C0001FFD0020B88020B200F0BAFAB8800120E6
:1007D0007870BE60FFF778FF00F052F900F03CFF40
:1007E0004846BDE8F08710B500F03EFF00F02DF957
:1007F0009B490020203948709B4908609B4908604C
:10080000BDE8104000F028BF10B500F02DFF98485B
:10081000806C016A9248884700F017F990480121DE
:100820002038914A417093491160904A9249116071
:10083000806828B100F024F9BDE8104000F00CBF3A
:100840008E48FFF790FFF7E72DE9F34F8FB000F0E8
:100850000BFF834B203BB3F9040080B301221D69D9
:100860000F9C1146A54200D100215D69109CA54254
:1008700000D10022114322D0794920394978C1B3EF
:10088000774C203CA16809680B9100F06DFC0A9040
:10089000A0680F9A0068018809912369A2EB0308F8
:1008A0004FF0FF32B8F1000F0ADD0123059300235A
:1008B000CDE90031491ECDF81080069109E0AEE087
:1008C000491E0592CDE9001200210491009941448E
:1008D000069110996369C91AB1F100090ADD012175
:1008E0000391408807900025401ECDF8089008909D
:1008F00089E08CE00392458800206D1E0290681804
:10090000CDE907207FE00299002005EB09078D4221
:1009100003DB08998D4200DC01200C900299002035
:100920008F4203DB08998F4200DC01200D90009C70
:1009300064E00A9804EB080600EB440109982A4693
:10094000684301EB400B21460B9800F00CFA8246FD
:100950000020049A0146944205DB069A944202DC88
:100960000C9A02B10121049A964205DB069A96423E
:1009700002DC0D9A02B101200E90BAF1000F14D0E2
:1009800039B1A5EB0902A4EB08010B9800F0EBF9D3
:1009900058B93348BBF800200838B0F90210B0F954
:1009A000000029442044FFF761FE0E9838B10A98F0
:1009B00000EB46010998784331F810000AE0284816
:1009C0000838B0F90210B0F9000039443044FFF79C
:1009D00066FE80B2ABF800005FEA0A000CD000F0BF
:1009E00023F882B21E480838B0F90210B0F90000AE
:1009F00039443044FFF73AFE059804440198844294
:100A000097D103980544079885427FF47CAF14483A
:100A10000F992038016110994161FFF755FE11B01F
:100A2000BDE8F04F00F018BE042804DA0C49083184
:100A300031F8100070470A49203989680968C96887
:100A4000896851F8200001F003B810B5044C203C2F
:100A50002078002803D000F01FF80020207010BD7F
:100A6000B4060020D40600208C060020900600204A
:100A7000241C0020FF060008230700084883000804
:100A800049484178002906D08178002903D1012105
:100A9000017000F03BB870472DE9F04700F0E4FD2D
:100AA000414CB4F9040068B300F05EFB064604F163
:100AB00018008046B0F90410B0F90020A2468F1A41
:100AC000B0F90610B0F902207F1C891A01F1010962
:100AD000002515E000240AE0B8F90210B8F900007A
:100AE00036F8142029442044FFF7C0FD641CBC42A2
:100AF000F2DBDAF808006D1C0068008806EB40069F
:100B00004D45E7DBBDE8F04700F0A6BD2DE9F04715
:100B100000F0AAFD2449B1F90400F0B38968D1F8C6
:100B200000A000F021FB204F06461837B7F904005B
:100B3000B7F90010401A00F10108B7F90600B7F93B
:100B40000210401A00F10109002524E000241BE0F6
:100B5000B7F902004119B7F900002044FFF79FFDE3
:100B600026F814002A462146504600F0FCF850B101
:100B7000FFF75AFF0246B7F902004119B7F9000022
:100B80002044FFF773FD641C4445E1DBBAF8000024
:100B90006D1C06EB40064D4500E000E0D6DBBDE8ED
:100BA000F04700F059BD0000940600201FB503ABCC
:100BB000CDF80CD000F089F86846FFF7A3FB1FBD05
:100BC0007FB50C461546CDF80CD003A900F06EF8A1
:100BD000641EE1B203AB2A4600F077F86846FFF7DF
:100BE00091FB7FBD1FB503A9CDF80CD000F03CF8F8
:100BF0006846FFF787FB1FBD7FB5051E01A80C46A1
:100C0000009006DA6946284600F050F8641E054652
:100C1000E4B2284600F036F8C2B2202003E0009B80
:100C200003F8010B00931146521CD2B2A142F6D335
:100C30006946284600F018F801A8FFF763FB7FBD5E
:100C40000022BDE70022B1E77FB50D4616461946E2
:100C5000CDF80CD003AB002200F037F8324629461D
:100C60006846FFF7CBFB7FBD70B50C46054600F02C
:100C700009F8C1B223462846BDE87040002200F0C2
:100C800024B80000011E10B54FF001000B4600DC37
:100C90004B42294A00E0401C52F820409C4201D8B7
:100CA0000928F8DB002900DA401C10BD10B5002827
:100CB00002DA2D22404200E02B220B685C1C0C6003
:100CC0001A70096800220A7010BDF0B5002807DA12
:100CD0001C682D25661C1E6025704042012400E022
:100CE0000024091BC9B20AB1491EC9B2124E56F8F6
:100CF0002140844200D8601EDFF840C0B9B10C46E4
:100D0000491EC9B2944205D11C689CF80070651C4C
:100D10001D60277056F8215090FBF5F4E4B204FBF7
:100D200015001D6830346F1C1F602C70E6E71968D1
:100D300000200870F0BD00000C8300087D06002034
:100D400070B5054600F090FC284600F0FEF904005E
:100D500005D000F009FA2A46002101F0D7FD00F085
:100D60007BFC204670BDC388042B28D004DC012BFB
:100D700008D0022B04D113E0082B2CD0102B30D03C
:100D80000020704783888068534303EBD10201F051
:100D90000701805CC1F10701C84000F00100704705
:100DA00083888068534303EB9102805C062202EA49
:100DB0004101C1F10601C84000F00300704783887B
:100DC0008068534303EB5102C907825C02F00F00B5
:100DD000F4D1100970478388806802FB0311405CDE
:100DE000704783888068534303EB410108440088BF
:100DF000704710B500F038FC01F062FE044600F0C8
:100E00002BFC204610BD10B500F02EFC01F058FE62
:100E100000F022FE044600F01FFC204610BD10B575
:100E200000F022FC01F04FFE044600F015FC2046C5
:100E300010BD10B500F018FC01F045FE00F00CFEEE
:100E4000044600F009FC204610BD000010B5044621
:100E500000F00AFC0F488484002400F0FDFB2046CB
:100E600010BD10B5044600F0FFFB0A48448400247E
:100E700000F0F2FB204610BD70B504460D4600F0B0
:100E8000F3FB044A54840024958400F0E5FB2046DB
:100E900070BD0000241C0020B0F90220B1F906301A
:100EA0009A4213DCB1F90220B0F906309A420DDC07
:100EB000B0F90020B1F904309A4207DCB1F9001012
:100EC000B0F90400814201DC012070470020704726
:100ED00010B5044600F0C8FB3149C8694168204696
:100EE0008847044600F0B8FB204610BD10B5044604
:100EF00000F0BAFB2A49C8690168204688470446C1
:100F000000F0AAFB204610BD70B504460D4600F067
:100F1000ABFB23482946C069C26820469047044677
:100F200000F09AFB204670BD1D49C96989680847D1
:100F30002DE9F0411A4E04460568F069016828461B
:100F400088470746F069416828468847284420605A
:100F50003846BDE8F0812DE9F04106460D460024F3
:100F60000F4F05E0F869416830468847064404445D
:100F70006D1EF7D22046ECE72DE9F041002506462C
:100F80000F462C46DFF8188006E0D8F81C10301900
:100F90004968884704446D1CA742F6DC2846D8E718
:100FA000241C002000787047012070470120704702
:100FB00001700120704710B500F056FB044903484A
:100FC000C861BDE8104000F047BB00005483000832
:100FD000241C00202DE9F04781464FF0FF38002007
:100FE000C14F1BE037F81100518806EB460501445C
:100FF00037F91500411A0CB24C450EDA6CB1BB49F9
:10100000014407EB4500B0F90220081B02F0DBFFAA
:1010100037F81500001B27F81500304600EB40019B
:1010200007EB41021679002EDCD100EB400207EB02
:10103000410137F91220B1F90210114441F288320E
:10104000521A4A4500DB80460FFA88F0BDE8F08767
:10105000A7489D2104224160816041F28831C1810D
:1010600001820021016081819F48428001800171DD
:10107000A0490120087070472DE9F041044600F0B6
:101080002CF9E41CDFF8688224F0030004B2B8F9FC
:101090000E00A04257DB944E012000EB400106EB0E
:1010A0004101498851B1401C9E28F6DB0025F5B36B
:1010B000204600F0E7F8411C02D006E005B2F6E752
:1010C0002046FFF787FF411C3DD000EB400206EBB6
:1010D000420C36F81210BCF8022005EB45078B18BD
:1010E00006EB47029CF80410548026F81730117163
:1010F00021B101EB410106EB41014D7150718CF8BA
:101100000450D8F800004146401CC8F80000D8F848
:101110000400401EC8F80400D8F80820824200DD10
:101120008860888920448881C889001B00E00AE023
:1011300000B2C881B1F91020824201DDA8F8100088
:101140002846BDE8F0810020FBE710B5040009D077
:1011500000F08AFA2046FFF78FFF044600F07CFA81
:10116000204610BD002010BD002806D05E4900EBCF
:10117000400031F910005D490844704710B500F097
:10118000ACF85B48B0F90E0010BD70B5002400F05B
:101190006BFA00F0A2F80020534D0DE035F8120074
:1011A0005A88104401EB410235F81220101A00B29F
:1011B000A04200DD0446084600EB400205EB420376
:1011C00019790029EAD100EB400005EB420135F81E
:1011D00010004988084441F28831081A00B2A04240
:1011E00000DD044600F038FA204670BD002806D025
:1011F0003D4900EB400001EB4000B0F902007047B0
:1012000010B5040008D000F02FFA204600F013F8C3
:10121000BDE8104000F020BA10BD10B5044600F043
:1012200023FAB4F90000FFF7EBFF00202080BDE8AF
:10123000104000F011BA2C4B00EB400010B503EB4E
:101240004001B1F9020000281BD0294AD489044486
:10125000D4819489201A90810020488008794979A6
:1012600001EB410403EB4404207120B100EB40008A
:1012700003EB400041715068401C50601068401EF4
:10128000106010BD30B50021174D0CE035F913305A
:10129000B4F90240234402EB420435F91440E31A46
:1012A000834215DA114601EB410305EB4304227931
:1012B000002AEBD101EB410205EB430335F9122083
:1012C000B3F902301A4441F288339A1A824201DBA0
:1012D00008B230BD4FF0FF3030BD0648007800281E
:1012E00000D1B5E6704700000C300020841C0020BF
:1012F000C0330020C406002010B500F0B5F92C481A
:101300008069447D00F0A8F9204610BD10B500F0BA
:10131000ABF9FFF7F1FF26498A8C10448884088CCA
:101320004884BDE8104000F097B910B504460A287B
:1013300011D00D2C12D000F097F91D48806901687A
:10134000204688471B48016809B120468847BDE808
:10135000104000F081B9BDE81040D7E710BD10B5CE
:10136000002400F081F91249888D00F00C00042857
:1013700004D0082806D00C2807D103E08869047D32
:10138000641E02E08869007D440800F065F920468B
:1013900010BD10B5044600F067F905498869416839
:1013A00020468847044600F057F9204610BD00004B
:1013B000241C002084060020F7B54E4D0C46114633
:1013C000286918B1FFF768FD002806D0A8690069F0
:1013D00020B18268214600989047FEBD464E0BE042
:1013E0006846FFF7A5FD0746A869016838468847A3
:1013F000316809B138468847641EF1D5FEBD73B522
:101400000D46009A002482B13A488069006950B1C3
:101410004368104698477CBD6846FFF789FD20B1B8
:101420000A2802D0641CAC42F6DB20467CBD73B5B2
:101430000C46009A00257AB12E488069006948B1AF
:101440000368104698477CBD6846FFF771FDFFF7BB
:10145000A0FF0544641EF7D528467CBD7CB5054633
:1014600026480E46006868B1002000F090FF06E0B4
:101470006A4631462846FFF79FFF00F061FF0028CB
:10148000F6D17CBD106800901A4C50680190BDF8F0
:101490000010206C0144ADF80010BDF80220616C12
:1014A0000A44ADF80220BDF804201044ADF8040051
:1014B000BDF806000844ADF80600684600F067FF76
:1014C0000CE0BDF800006084BDF80200A0846A460C
:1014D00031462846FFF770FF00F032FF0028F0D1B8
:1014E000608C216C401A6084A08C616C401AA084CE
:1014F0007CBD0000241C00208406002088060020FB
:101500002DE9F04FDFF84CB18BB04FF0FF36BBF94F
:1015100022200692DBF81820BBF924A09469A18947
:10152000884206D3E389834203D3451AD4F8008066
:1015300013E0D4E9018179B10B8898420CD34D882E
:10154000854209D3C01A496880B201EB8000B0F926
:101550000050B0F9026000E03546681C55D0107D9F
:10156000A17C00FB01F9217CCDE90710BBF92A70B1
:10157000384600F0F7F8C0B205FB0982099002ADC9
:10158000344BA17C01200FC5DBF818005146C37D08
:10159000827DCDE9002395E80D0000F04CF9701C28
:1015A00015D047F0020000F0DDF806FB098202AD1D
:1015B000284BA17C01200FC5DBF818005146C37DE4
:1015C000827DCDE9002395E80D0000F034F9DBF8C9
:1015D00018005D46417D007D814213D9022F11D054
:1015E00087F0040000F0BEF8A869037D427D857D88
:1015F00003FB02A102EB0A03DDE9060202FB05027E
:1016000000F0F9F8099800F0ADF8BBF82210627C00
:101610001144ABF822100BB0BDE8F08F0D48806983
:101620008069407C70470220088070478069828909
:10163000914202D3C2898A4207D2806838B10288B7
:101640008A4204D84088884201D301207047002094
:1016500070470000241C002036494868401E48603E
:1016600001D104F0D5BA704770B5324E706820B120
:1016700004F0A4FAB168884204D004F0BFFA04F080
:101680009DFAB0607068401C706001282CD1002465
:10169000294D04F093FA04EBC40101EB041155F851
:1016A0002110814204D001B3641C042CF1DB00241E
:1016B0003068844218D0002815DB00EBC00101EB34
:1016C000001005EB8000001D60221C4902F0BDFCEB
:1016D00004EBC40000EB041005EB8001091D60223F
:1016E000164802F0B2FC346070BD04EBC40101EB9B
:1016F000041145F82100DBE70E494FF0FF30086088
:1017000004F06EBA2DE9F04100240B4D264604EB9F
:10171000C40000EB041705EB8700001D6022074999
:1017200002F093FC641C45F82760042CEFDBBDE855
:10173000F0810000C8060020D4330020241C0020C3
:1017400010B50446012000F0A3F9D64921F8104055
:1017500010BD10B50446002000F09AF9D14921F8D7
:10176000104010BDCF4910B50246087B80EA020345
:101770005B0703D50B884C880C804B800A7310BD27
:10178000C84A30B4B2F906308B4217DCB2F90A30DD
:101790008B4213DBB2F9043083420FDCB2F908301C
:1017A00083420BDB137BDC0713469B6C02D09A6AE7
:1017B00030BC104752885B6A30BC184730BC704759
:1017C00030B4B84CB4F906308B42F7DCB4F90A30C7
:1017D0008B42F3DBB4F90430834200DD1846B4F9E0
:1017E0000830934200DA1A468242E7DBA36C1B6999
:1017F00030BC1847E2E730B4AA4DB5F90440844242
:1018000000DD2046B5F90840944200DA22468242C3
:10181000D4DBB5F906408C4200DD2146B5F90A401B
:101820009C4200DA23468B42C8DBAC6CA469A44618
:1018300030BC6047C2E72DE9FF4F05469A4887B0A4
:101840000026D0F800C0189C0F469B46BCF1000F44
:101850000CD0DDE91601199B02AA059313C2DDE93C
:101860001423CDE90023DCF8004079E00998FA1848
:101870002918DDE91403521E491E1843012807D018
:101880001698C0F10800CDE9017000200390BEE079
:10189000844EB6F90630D81B002808DDABEB000BF0
:1018A000BBF1000F61DD1F46179B00FB0344B6F937
:1018B0000A00101A002804DDABEB000BBBF1000F8F
:1018C00053DDB6F90800081A002802DD0999081A44
:1018D0000990B6F904000022A84234DD421B0998A1
:1018E000801A0990169804281FD004DC01280CD017
:1018F000022828D111E06B49B1F90410491B294491
:1019000008281AD010281ED119E022F0070004EB95
:10191000E204054402F0070215E022F0030004EBA4
:10192000A204054402F003020DE022F0010004EBE2
:101930006204054402F0010205E0144401E004EBF6
:1019400042040D460022099800280EDD1798199BC5
:10195000CDE90104CDE90323169B0093B06CC46864
:101960005B4639462846099AA0470BB0BDE8F08F80
:1019700015990198084405904A49401E0090B1F914
:10198000062082423BDC0846B0F90A1001988142E9
:1019900035DB0027A146A846BA462DE017B919F84D
:1019A000016B0827029936FA01F0169906FA01F63A
:1019B000F6B2A7EB010703D13A49097B890717D48F
:1019C000384949880491199921B131F810103548E6
:1019D000418001E0334948801499404608EB0102F8
:1019E000DDE90031521EFFF706FF2E4904984880BA
:1019F00014990AF1010A884409998A45CEDB0398B3
:101A0000401C03900598019017980444039858458A
:101A1000AEDBAAE72348816C001D096A084710B5B0
:101A2000FFF7F8FF04F035FB044601F07DF80420D1
:101A3000FFF798FE40F6FF72002113460846FFF7B5
:101A4000DAFE0020FFF78EFE04F028FB204610BDD2
:101A50001449896C096808471249896C4968084724
:101A6000104910B54A6B824205D04863FFF7F0FF7A
:101A7000BDE810406DE610BD0A4910B50A6B824200
:101A800005D00863FFF7E4FFBDE8104058E610BD3D
:101A9000044A0146A0F10100127B520700D4084617
:101AA00070470000241C00208806002000F0DABEE9
:101AB00001F03EB800F0E1BE00210180418040F21B
:101AC0003F118180EF21C18070470000B0F9001004
:101AD000B0F90420914205DCB0F90210B0F906001B
:101AE000814201DD00207047012070477CB50D4622
:101AF000FFF73AFB0446808B81071CD540F60101B5
:101B00000840012817D02846FFF7E0FF002812D030
:101B100022462946684600F0D0FE6846FFF7D6FF09
:101B2000002808D0A08B810606D504F108016A467A
:101B3000084600F010FF7CBDDDE90012C4E9021286
:101B4000FD4940F02000A083C888401CC8807CBDAF
:101B50000B46B0F90220B0F90010184600F028BF7B
:101B60001CB5F6490446886B40B102680092406893
:101B70000190F148B0F9120038B904E02046BDE800
:101B80001C4000F0A5BFB1F93C00FFF7EDFA694633
:101B9000FFF7DEFF2146684600F072FE684600F05F
:101BA00097FF1CBD2DE9F04107460E463046FFF772
:101BB000DBFA0446808B800711D52146384600F0B9
:101BC0005FFEB4F916500DB12E46EFE7DA480A3041
:101BD000B0F90000B04202D10120BDE8F081002040
:101BE000FBE71CB5D44C607818B1BDE81C40D44864
:101BF000B6E7D248B0F93C00FFF7B6FAD0E90010DA
:101C0000CDE90010B4F9121011B16846FFF7CAFF10
:101C10006846FFF7A5FF1CBD2DE9F0470C000646FE
:101C200019D0FFF7A1FA054600206883EC82204610
:101C3000FFF79AFA0746A88B00F00808B7F91800D2
:101C40005FEA000906D0FFF78FFA0446B8F1000FEB
:101C500003D008E03E83BDE8F087A08B000702D5E3
:101C6000A5F81A90F6E7B4F91A7037B13846FFF7BD
:101C70007BFAB8F1000F02D007E06683EBE7818BB7
:101C8000090702D566836F83E5E70446EBE770B585
:101C90000546FFF769FA0446B0F9160000280AD095
:101CA000FFF762FA0646B0F91800A8420ED1FFF716
:101CB0005BFA408B308370BDFFF756FA0146B0F9EE
:101CC0001A00A84202D1608B488370BD0028F3D16E
:101CD00070BD70B50546FFF7C7FC9748B0F90840DE
:101CE00008E029462046FFF701FF2046FFF73CFAAF
:101CF000B0F91440002CF4D1BDE87040FFF7ACBC43
:101D000070B50546FFF730FA0446C08A002807D0B0
:101D10002846FFF7BCFF2046FFF7DBFF0020E082EC
:101D200070BD70B50446FFF79FFC844DB5F93C606B
:101D300014B98148B0F90840AC872046FFF714FA7F
:101D40000446FFF767FEB4F900002864B4F9020006
:101D50006864FFF781FC304670BD70B50546764873
:101D6000B0F908000DE0FFF7FFF9B0F914100446D0
:101D7000A94205D12846FFF7F7F9808AA08270BDF5
:101D800008460028EFD170BD70B504000D460ED096
:101D9000FFF76AFC2046FFF7E7F9016919B1AC804B
:101DA000026928469047BDE87040FFF755BC70BDFA
:101DB0000EB50091ADF804006946FFF7E5FF0EBDD2
:101DC00010B504465C48B0F9080007E0A04201D114
:101DD000012010BDFFF7C8F9B0F914000028F5D1B3
:101DE00010BD70B504004ED0FFF73EFC2046FFF753
:101DF000E7FFE8B32046FFF7B7F94F4E054600204E
:101E0000B082B6F91010A14200D13082B6F90E109E
:101E1000A14200D1F081B16905E0B1F90420A242EC
:101E200000D1888009680029F7D10721204601F0F8
:101E3000F3FAB5F9180000F027F80B212046FFF758
:101E4000B7FF2046FFF75CFF2046FFF786FFA88B11
:101E5000C10703D0716AA1F101017162800602D548
:101E6000F088401EF080B088401EB080204600E020
:101E700005E0FFF7C5F9B6F90800FFF752FFBDE826
:101E80007040FFF7E9BB70BD70B5044608E020461E
:101E9000FFF76AF9B0F91A502046FFF7A2FF2C4667
:101EA000002CF4D170BD14E72DE9FC410D4690469D
:101EB0003EE0FFF759F9848B0646A00736D55FEA66
:101EC000080005D002463146684600F0F6FC03E003
:101ED000D6E90001CDE9000169462846FEF7DCFF9E
:101EE00020B3E00702D0B6F918401DE0B6F90200B1
:101EF000B5F90210884205DDBDF90200401E03E07D
:101F0000E88013E0BDF90600B5F906108842F7DB5A
:101F10000CE02046FFF728F907466A462946204686
:101F2000FFF7C2FFB7F91A40002CF2D1B6F91A0038
:101F30000028BED1BDE8FC81D8060020241C00206A
:101F40006C3500202DE9FC4788469146002634E098
:101F5000FFF70AF9848B0546A0072CD55FEA090034
:101F600005D002462946684600F0A7FC03E0D5E903
:101F70000001CDE9000169464046FEF78DFFD0B172
:101F8000E00702D0B5F9184013E0BDF80400401C8A
:101F9000A8F8000001260EE02046FFF7E5F8074606
:101FA0006A4641462046FFF7CDFF00B10126B7F94A
:101FB0001A40002CF0D1B5F91A000028C8D13046DB
:101FC000BDE8FC872DE9FC410E46904630E0FFF766
:101FD000CBF8848B0546A00728D55FEA080005D01A
:101FE00002462946684600F068FC03E0D5E9000196
:101FF000CDE9000169463046FEF74EFFB0B1E0077B
:1020000002D0B5F918400FE0BDF80000401EB080C6
:102010000CE02046FFF7A8F807466A4631462046FE
:10202000FFF7D0FFB7F91A40002CF2D1B5F91A002A
:102030000028CCD17EE700224A800A80828803886B
:10204000D21A8A80C2884088101AC88070477FB52B
:1020500006000D4627D0FFF707FB3046FFF784F850
:10206000848BA1071DD5D0E90012CDE9001255B12E
:10207000296802916968039102A9FFF769FD02A925
:10208000684600F0FDFB31466846FFF78BFD40B126
:1020900040F601000440012C06D069463046FFF7A7
:1020A00025FDFFF7D9FA7FBD6846FFF712FEF8E776
:1020B0000021CCE72DE9FF5F0746DDE90E65884684
:1020C00091469A46DDF844B0FFF7CEFAFB4CA08962
:1020D00005432EB9A08818B104F10A00B0F90060D8
:1020E000701C0DD0DEB13046FFF73EF8B0F900109D
:1020F000B0F902200F449044B9F1000F02D006E07D
:1021000000260CE0B0F90430591A01F10109BAF1C6
:10211000000F04D1B0F90600801A00F1010A0BF19A
:10212000200000B2FEF70CFE5FEA000B50D0E3483F
:10213000E2498088401C88805846FFF715F80780E0
:1021400007EB0901A0F80280491E818008EB0A0113
:10215000491EC180109901610446818B43F68F703E
:1021600028400143D548A183B0F9080050B1FEF7DB
:10217000FBFF07465846FEF7F7FFB98A8182A7F8AA
:1021800014B002E0CD49A1F808B031465846FFF737
:1021900043FDA80602D55846FFF7C3FDE80704D063
:1021A000C648416A01F101014162680602D55846FC
:1021B00001F0F4F8A80707D5A08B002140F0020039
:1021C000A0835846FFF743FF01215846FFF7F0FD73
:1021D000FFF742FA04B05846BDE8F09F2DE9FF41F1
:1021E00004460AA80D4616461F460EC800208DE874
:1021F0000F003B46324629462046FFF75BFF04B0FE
:10220000EBE4AF48B0F93C0070472DE9FC41AD4E1E
:10221000D6E90201CDE90001306968B3B089401CFC
:1022200000B2ADF800007189ADF80210B6F90410E3
:10223000884206DD3088ADF80000F089401CADF81A
:102240000200BDF90200B6F90610884270DC9C4F0E
:10225000B7F93C00FEF788FF0446BDF90000B6F967
:102260000010884220D1F088ADF80600B088ADF8A3
:102270000400B7F93C000FE03088ADF8000070882A
:10228000DDE7FEF771FF0546B0F91A000022694646
:10229000FFF70AFEB5F916000028F2D1B4F91800CC
:1022A00000226946FFF700FEBDF80000ADF804000B
:1022B000B7F93C000CE0FEF757FF0546B0F91A00ED
:1022C00000226946FFF73EFE0028EDD1B5F9160061
:1022D0000028F0D1B4F9180000226946FFF732FE59
:1022E0000028E1D1B6F90400BDF90010ADF80400F2
:1022F000884204DADDE90001C6E902019AE7B7F98C
:102300003C000AE0FEF730FF0546B0F91A00002253
:102310006946FFF757FEB5F916000028F2D1B4F967
:10232000180000226946FFF74DFE3069C82801DD1C
:102330000020FFE5DDE90001C6E902010120F9E521
:1023400070B55E4D6878002806D05E4C6069012843
:1023500003DD401E6061002070BD287820B10020A0
:1023600028705948006880472069401C2061FFF7A9
:102370004CFF50B1FFF735FC5448016819B1514882
:10238000083088472870012070BD6069E1E72DE9B9
:10239000FF414A4E8046707838B14A4D6869401C0A
:1023A0006861012804DD012029E7FFF71AFCFAE73C
:1023B000434FB7F93C00FEF7D7FE04464FF0FF301D
:1023C0002861B07820B1A0680090E068019006E034
:1023D000A08B800732D5D4E90001CDE900015FEA86
:1023E000080003D00146684600F04AFAB96B89B18B
:1023F0000A68029249680391B6F91210204611B199
:102400000846FEF7B1FE02A9FFF7A2FB02A9684643
:1024100000F036FAB6F9121019B16846FFF7C2FBA0
:1024200060B1B7F93C106846FFF7BCFB30B1DDE99D
:102430000001C5E90001FFF783FFE0E66869401E7F
:1024400068610020DBE610B500F012FB1C4900209B
:10245000886310BDFEB505460A69888B002A2CD01A
:1024600082072AD5154EC0044FF00F07B27801F14C
:10247000080402F10102B2700AD5ADF804500097C9
:102480000294FFF7E0FF69462846FFF77DFC11E064
:102490002046FFF77CFF0BE0ADF804500097029454
:1024A000FFF7D1FF69462846FFF76EFCFFF748FFAC
:1024B0000028F1D1B078401EB070FEBDD8060020D3
:1024C000241C002064350020900600208C0600208B
:1024D0002DE9F047D94C81460D46B4F93C00FEF792
:1024E00043FE083029468046FEF7D6FC00281BD064
:1024F000D4E910674246294605F1080000F0DDF9ED
:10250000DFF83C832946A8F81290B5F90000206452
:10251000B5F9020060644846FFF79CFF0021A8F867
:102520001210C4E910670120BDE8F0872DE9F047DB
:102530000446808B8007F7D5B4F9186004F10809C8
:102540001BE03046FEF710FE0546808BC043800737
:1025500011D149462846FEF79FFC60B1D4E90270CC
:10256000804629463046FFF7B3FF10B12846FFF7F3
:10257000DDFFC4E90278B5F91A60002EE1D1D3E796
:1025800070B54468B0F9002040F60101A08B084006
:10259000012803D021461046FFF75CFFA848406A97
:1025A000002823D02046FFF7C1FFB4F91660B4F924
:1025B0001A4019E02046FEF7D7FD0546808BC04340
:1025C000800703D129462046FFF782FF2846FFF700
:1025D000ADFFB5F91A40002CECD13046FEF7C4FD32
:1025E000B0F91A40B0F91660002EF4D170BD2DE993
:1025F000F041924F8046B7F93C00FEF7B5FDD0E9B7
:1026000002560446D7E90101C4E902014046FFF73A
:10261000B7FFC4E90256BDE8F081F0B5884E99B025
:10262000306A00B180478748006808B1804710B918
:1026300000F0E7F910B1012019B0F0BD707820B3B7
:10264000F08810B3FFF710F8B6F90850B6F9140087
:10265000012400B10546684600F0FEF90BE028466B
:10266000FEF782FD07460146284600F0A7F800B1B4
:10267000641EB7F914500DB1002CF0D1B582684634
:1026800000F0EEF9FEF7E8FFD5E70020D4E710B53B
:10269000002400E00124FFF7C0FF0028FAD1204603
:1026A00010BD70B5B0F90450044686682846FEF7A0
:1026B0005BFD02462068172811D004DC0E2810D0DC
:1026C000142809D104E0222811D0282804D111E0CF
:1026D00031461046FFF7AFFC0020A06070BDA5603A
:1026E00070BD21462846BDE8704000F09DBE6FF0E9
:1026F0007040F2E72846BDE870400021A7E410B51D
:10270000044600680E2802D00F2814D108E0A06803
:102710004168012913D10068BDE8104000F05DB99F
:1027200047486FF070411C300068884203D0FDF7C5
:1027300077FEFDF74DFF2046BDE81040B1E710BD24
:102740003F490120487070473D4910B5002048704E
:10275000FEF78AFFFFF75EF9BDE81040FEF77CBF89
:102760003EB5374CE078002827D134492081A0823B
:102770008863E080A0800346334A02218DE80E0082
:1027800040F6FF7213460146FFF728FD04F10A05E3
:1027900004F11C0228806FF070411160FFF788FC83
:1027A0002A4800F01FFE2A4800F01CFEB5F9000080
:1027B000FFF7B7FA01206070E0703EBD70B50646C5
:1027C000888B002586B00C46800634D5206900B37E
:1027D000314604F10800FFF7E5F9D0B1ADF8046027
:1027E00030460294FFF79DFAA08B400712D5D4E93A
:1027F0000201CDE90301A08B40F30003E08A5B1CDA
:1028000000B900230093002301AA124903A800F095
:102810004BFD03E001A8FFF7B3FE0125A08B20F0DC
:102820002000A083810402D540F00400A083044866
:10283000C188491EC18006B0284670BD241C0020F6
:10284000D806002080060020FF2600081007002080
:1028500018070020EF2500080148B0F90000704774
:10286000E2060020C0F3C401C0F38522C0F3C440D7
:1028700000EB421000EBC12070474FF6FF7070472D
:10288000B0F90030B1F90020934200DA0280B0F9CB
:102890000230B1F90220934200DA4280B0F90430EC
:1028A000B1F90420934200DD8280B0F90620B1F92D
:1028B00006108A4200DDC180704770B5B1F9003062
:1028C000B2F90040A34200DD1C460480B1F9025079
:1028D000B2F902309D4200DC1D464580B1F904602A
:1028E000B2F904309E4200DC33468380B1F9061011
:1028F000B2F90620914200DD1146C180A34201DBFE
:10290000A94201DA002070BD012070BD10B502E0BF
:1029100000F8011B521E0AB18307F9D1930817D0A2
:1029200001EB014402F0030204EB042405E004601F
:1029300044608460C46010301B1F042BF7DA01E090
:1029400010C05B1E002BFBD102E000F8011B521EE1
:10295000002AFAD110BD10B5002821D009B302B366
:10296000B1F90030B2F90040A34200DD23460380F4
:10297000B1F90230B2F90240A34200DD23464380A0
:10298000B1F90430B2F90440A34200DC234683804D
:10299000B1F90610B2F90620914200DC1146C1805F
:1029A00010BD01B911460A6802604968416010BD56
:1029B00000280BD003880B4403808388194481804E
:1029C000418811444180C1881144C1807047000092
:1029D0002049002248684A6070471E494A68002A18
:1029E00000D14860704700B5FFF7F2FF0028FBD127
:1029F00000BD184A0832C2E90001164901200860EA
:102A0000704770B50024FEF72FFE1248016879B1B7
:102A1000491E00F108040160D4E90051284601F084
:102A200055F86068012802D12846FFF7D6FF012437
:102A3000FEF712FE204670BD70B504460D4601F04B
:102A400045F8002804D129462046BDE87040D0E76B
:102A500070BD0000000700206022044901F0F5BAB3
:102A600001466022014801F0F0BA0000241C002059
:102A700010B50020FDF7D4FC6FF07F40FDF7DBFCC4
:102A8000012000F013FD002000F042FD002000F0C6
:102A90004DFD002000F022FD0848FDF7D7FCBDE801
:102AA0001040002000F026BD10B5FEF7DDFDFFF759
:102AB000DFFFBDE81040FEF7CFBD0000988A000898
:102AC000024800887047014840887047241C002055
:102AD0007CB5064C0546A06C026A684690476A467B
:102AE0002946201DFFF7E9FE7CBD0000241C0020C4
:102AF0002DE9F041002806D086681EB10568B5F5BD
:102B0000807F02DD0020BDE8F0810024074F06E051
:102B100056F82400FEF79CFF27F81400641CAC4212
:102B2000F6DB0248EFE7E3E7704700007C35002062
:102B30001F2300F01F02C0F3451110B5C0F3C420DD
:102B4000C0EB0020C1EB01213F24B0FBF3F0B1FB4F
:102B5000F4F1C2EB0222B2FBF3F200EB012000EB36
:102B6000024010BD2DE9FF5F984610AB834645CB70
:102B7000894698F80050FA4BDDE90E175D5DC1F10A
:102B80000804CD40F749097B11F003011FD001294A
:102B90004AD0022960D1B0F802A0BC4200D93C461C
:102BA0003F1BBBF1000F2BD035B3E80708D0DBF893
:102BB00008004946029A036858469847A6F800A0BC
:102BC000B61C09F10109641E26D06D08ECE7E44942
:102BD000BC4200D93C463F1B05F001026D0830F8AD
:102BE000122026F8022B641EF6D1002F34D018F8DC
:102BF000012F08248D5CEBE706EB4406A1440BE0B3
:102C000045B1E80701D0A6F800A0B61C641E03D0A9
:102C10006D08F5E706EB4406002F1DD018F8011FDC
:102C2000CF480824455CB8E7506A8047CC4980B259
:102C3000BC4200D93C463F1BEA0702D032884240E2
:102C40003280B61C6D08641EF6D1002F04D018F82F
:102C5000012F08248D5CEBE7BDE8FF9F2DE9F05FB5
:102C600080460AA88A46B0E8420293461F461A7870
:102C70008B009A40D5B2BB4AC1F102000D9C127B79
:102C8000C0B212F0030219D0012A79D0022A37D13A
:102C9000C1B328090DD02909B8F1000F39F8110086
:102CA000208006D0D8F808005A46514603684046AE
:102CB0009847A41C0AF1010A761E49E039B1290996
:102CC000761E39F8110024F8020B17F8015F022E66
:102CD00010DB701006F001062A0939F8121005F011
:102CE0000F02218039F812106180241D17F8015F4E
:102CF000401EF1D1002E03D0290939F8110020809F
:102D0000BDE8F09F26E028090DD02909B8F1000F91
:102D100039F81100208006D0D8F808005A465146EC
:102D200003684046984715F00F000DD039F81000A1
:102D30006080B8F1000F07D0D8F808005A460AF1B1
:102D40000101036840469847241D0AF1020AB61E95
:102D500017F8015F022ED6DA002ED1D02809CFD085
:102D600039F810002080B8F1000FC9D0D8F8080059
:102D70005A46514603684046BDE8F05F1847FFE7F2
:102D8000B04200DDF0B2361AA90903D0218881F0E3
:102D9000FF0121802907A41C0D0E401E10F0FF002A
:102DA000F2D1002EACD0022017F8015FE8E72DE940
:102DB000FF4F87B005466B48DDE9168B8A46B0F9B0
:102DC0004C00149EFEF7D0F98146B0F9180018B1F6
:102DD000FEF7CAF9044600E00024D9F80C0005907B
:102DE00005EB0B0007905CB15E48007B800707D4C1
:102DF0000A9B009352462046099B079900F02FFE3C
:102E00005146079800F0CBF90746102E04D0082E43
:102E10003CD01898C8B399E000202FE007980190A3
:102E20000BEB0A0000904F48DDF824904546007BEC
:102E30003E4610F0030002D0022819D106E04FEA06
:102E400049024146384601F079F811E0288838B146
:102E500030802CB1A068DDE9002103682046984746
:102E60000198B61C401CAD1C0190B9F10109EDD1CF
:102E700005981599074488440BF101000A99834687
:102E80008842CBDB0BB0BDE8F08F5DE0002056E060
:102E90001898DDF824900028079801900BEB0A00A1
:102EA0000090304845463E46007B00F0030024D0A9
:102EB00010B102283DD10AE015F8011B1898B9F1AC
:102EC000010930F8110026F8020BF5D131E028781D
:102ED00050B1189931F8100030802CB1A068DDE9AC
:102EE00000210368204698470198B61C401C6D1CC1
:102EF0000190B9F10109EAD11BE010B1022818D103
:102F000005E04A464146384601F018F811E02878B5
:102F100038B130802CB1A068DDE90021036820467B
:102F200098470198B61C401C6D1C0190B9F101092D
:102F3000EDD105981599074488440BF101000A99D1
:102F400083468842A4DB9DE70748189000253EE0B1
:102F5000012E0BD0022E1AD0042E33D125E0000012
:102F60006C8B0008241C00200C8B00081899099811
:102F70000DF1040CCDF800B00497ACE8030205EBAA
:102F80000A02434620460799FFF7ECFD1AE009992B
:102F900001A8189ACDF800B086C005EB0A02434696
:102FA0002046079900F013F90CE0099901A8189A36
:102FB000CDF800B086C005EB0A02434620460799CB
:102FC000FFF74CFE15990598884407446D1C0A9834
:102FD0008542BDDB56E72DE9F84F0446B1480E4661
:102FE00015469A46B0F94C00FEF7BEF880463146C9
:102FF000204600F0D4F80746281B00F10109B8F973
:103000001800D8F80CB018B3FEF7AEF8AAEB060318
:103010005B1C00934B463246214600F020FD17E032
:10302000A048017BC9070CD0D8F824004D463C4687
:10303000804780B22188414024F8021B6D1EF9D1DF
:1030400004E041884A46384600F001FA5F44761CA5
:103050005645E5DDBDE8F88F0B46BCE72DE9F74F97
:10306000DFF840820D469246B8F94C00FEF77CF836
:10307000B0F9187006461FB13846FEF775F800E043
:10308000002081462946009800F089F8044698F807
:103090000C00D6F80CB0C00716D0706A80471FFA33
:1030A00080F837B1D9F808002A46009903684846E5
:1030B000984720886D1C80EA08002080F0685545FC
:1030C0000444EEDDBDE8FE8F77B1D9F808002A464A
:1030D0000099036848469847B8F8020020806D1CA4
:1030E0005C445545F1DDEDE7AAEB0500401CB8F85E
:1030F000021021805C44401EF9D1E3E72DE9F04144
:10310000064668480F461546B0F94C00FEF72CF805
:10311000B0F918403946304600F041F80580002CDF
:103120000ED02046FEF720F805462046FEF71CF894
:1031300080683A46314603682846BDE8F0411847A2
:10314000BDE8F0812DE9F041074656488846B0F9C0
:103150004C00FEF709F80446B0F9186041463846BD
:1031600000F01DF80546606A8047298841402980A3
:10317000002EE5D03046FDF7F7FF04463046FDF758
:10318000F3FF80684246394603682046BDE8F041B7
:103190001847D5E710B500F002F8008810BD70B5EB
:1031A000044640480D46B0F94C00FDF7DDFF41886C
:1031B000C36800F12C02691A89B29BB201FB03219A
:1031C000B0F9000001EB4401A1EB400070BD2DE916
:1031D000FF5F8A460EA98146B1E84108C0F10401AB
:1031E000CCB21978400081402E48119F9846007B50
:1031F000CDB210F0030004D001283AD002284FD1FC
:1032000014E0B44200DDF4B2361BA9093BF811000A
:1032100027F8020BA806050E641E14F0FF04F4D173
:10322000002E3DD0042418F8015FEAE7B44200DD27
:10323000F4B2361BA8090DD0A909B9F1000F3BF86B
:103240001100388006D0D9F808005146029A036868
:1032500048469847A806BF1C050E641E0AF1010ADD
:1032600014F0FF04E6D1002E1AD0042418F8015FF0
:10327000DCE7B44200DDF4B2361BA80903D038887D
:1032800080F0FF003880A806BF1C050E641E14F0F5
:10329000FF04F2D1002E03D0042418F8015FE8E700
:1032A000DAE40000241C00202DE9F84F0400DDF8CA
:1032B00028A0894693461F4621D00026B4F9001065
:1032C0003046002900DB08468046B4F90200002899
:1032D00000DB064600F038F9411EB4F9040000F0A6
:1032E00057F8054600F033F9411EB4F9060000F026
:1032F0004FF8A5EB0804641C851B6D1C08E04FF01B
:103300000008464600F020F9044600F020F9054682
:1033100007B96F42002C01DD002D02DC0020BDE862
:10332000F88F3B46224631464046CDF800A000F0DB
:10333000D6F95FEA000A07D000F014FB07465046B2
:1033400000F0FEF900241AE058464946884701205B
:10335000E5E7291BB94202DA504600F019FB3CB1FF
:1033600032194146504600F02DFB504600F0DEFA7F
:10337000584649468847504600F0CEFA3C44AC4295
:10338000E7DB504600F02EF9002000F0D9F9C5E740
:10339000024608468A4200DC104670472DE9F0419B
:1033A0000746FEF761F9CFB13846FDF7DDFE054669
:1033B000384600F069FB040010D0384600F077FB77
:1033C000FDF7D2FE06462046FDF7CEFE698B41830F
:1033D000308B688337832846FEF77BFCBDE8F041DD
:1033E000FEF73AB90B490A68026008607047094B5A
:1033F0001968002905D00022814206D108680AB167
:10340000106070470028186070470A460968002954
:10341000F2D17047F00600200EB5262202910092EC
:10342000694600F001F80EBD70B505460C000DD0E0
:10343000FEF71AF9284600F03AFB18B1E58021465C
:10344000FEF7A2FCBDE87040FEF706B970BD10B5EE
:10345000830702D520F8021B521E530810D001EB3F
:103460000144042B08DB046044608460C4601030B5
:103470001B1F042BF7DA01E010C05B1E002BFBD1F1
:10348000D20700D0018010BD10B5FEF7EDF812484C
:10349000047DFEF7E1F8204610BD10B5FEF7E4F814
:1034A0000D48447DFEF7D8F8204610BD70B505469E
:1034B000FEF7DAF80848047D0575FEF7CDF82046DA
:1034C00070BD70B50546FEF7CFF80348447D4575DD
:1034D000FEF7C2F8204670BD241C002010B504463B
:1034E000FEF7C2F82046FEF73DF90446FEF7B4F8B1
:1034F000204610BD70B50546FEF7B6F80348847D3A
:103500008575FEF7A9F8204670BD0000241C002038
:1035100070B50546FEF7A8F80348B0F92C4085853C
:10352000FEF79AF8204670BD241C002070B50546B1
:10353000FEF79AF80348B0F92A404585FEF78CF863
:10354000204670BD241C00204FF4A0707047F0206E
:1035500070474FF4A0707047F020704710207047FC
:103560004FF480307047012070470120704740F2CF
:103570003520704710B50446E948B0F94C00FDF716
:10358000F3FD01882180418861800188828811448F
:10359000491EA1804188C0880844401EE08010BDBB
:1035A00010B50446DE48B0F94C00FDF7DDFDC169F9
:1035B0002046BDE81040084710B50446D848B0F989
:1035C0004C00FDF7D1FD016A2046BDE810400847D8
:1035D000D34810B5B0F94C00FDF7C6FD406ABDE810
:1035E0001040004710B50446FEF73EF88CB1CC48B9
:1035F000B0F94C00A04201D100F084FA2046FDF75A
:10360000B3FDB0F9180008B100F016FA2046FDF736
:10361000F7FDBDE81040FEF71FB82DE9FF4F81B060
:103620009246DDE90E4B1D46DBF83C90002602FB7E
:1036300009F0C01DC708FDF7A8FDE10705D1C117B6
:1036400000EB9170801000EB4000002D06DC2C3860
:10365000B0FBF7F06D42A84200DC0546E00708D158
:1036600000230093DDE901012B46524600F00BFBDD
:103670000646002D05DCFDF7EFFF002005B0BDE894
:10368000F08F05FB07F02C30E10700B202D0FDF708
:103690005CFD01E0FDF754FB5FEA000819D0FDF77F
:1036A00063FD0199018002994180A0F804A00446BD
:1036B000C580FFF755FFC4E9020726831098E06133
:1036C000119820621298C4E9090B0020C4E9049003
:1036D00003E016B13046FDF793FD4046CEE72DE9F5
:1036E000F04385B005460E4617469846DDF8309003
:1036F000FDF7BAFF8B488A490468B1F94C00A8B1BC
:10370000FDF732FD1C300EC8A06B01ACCDF8009067
:103710000FC443463A4631462846FFF77EFF04462B
:10372000FDF79AFF05B02046BDE8F083886CEAE714
:1037300038B51C46002300932346FFF7D0FF38BD61
:103740002DE9F0410546FDF78FFF754CB4F94C703B
:103750004DB12846FDF708FD0646FEF7F5FFB4F823
:103760004C0018B108E000F0CDF90BE06068C4F837
:103770004E00A068C4F85200A4F84C50B06AA0648F
:10378000FEF748F9FDF768FF3846BDE8F0812DE9FE
:10379000F74F8AB09246FDF7E7FC0746B0F91800EC
:1037A000B7F906100991D7E903B10891C90807F1E3
:1037B0002C060791B0B3FDF7D7FC8046002456E0F5
:1037C00000200690D8F80800224606A94369404622
:1037D0009847B7F904100546814244D1A14600E05C
:1037E000641CD8F80800621C06A943694046984743
:1037F000A842F5D00023CDE9046308980123CDF851
:103800000CB00093CDE90130A4EB09056B1CB7F9AE
:1038100004200AEB09010B98FEF70DF86B1C03FB63
:103820000B6623E028E0DDE906C00CFB0062002304
:10383000CDE9042308980123CDF80CB00093CDE91D
:1038400001300B980AEB040160442A46FDF7F3FFB0
:103850000698224628440690D8F8080006A943692D
:10386000404698470546002DDDD15E44641C09980A
:103870008442A5DB0DB002E70023CDE904630123F8
:103880000898CDE90033CDE9020B1A46B7F90420B8
:103890005146099B0B98FDF7CEFFEBE72DE9FC4164
:1038A0005FEA00080D46164634D0FDF7DDFE1C48E1
:1038B000B0F94C704046FDF757FC044600F022F981
:1038C00040F6FF70401903D1B4F90050B4F902601A
:1038D000A188681E0844ADF80400ADF80050E188E6
:1038E000701E0844ADF80260ADF80600FEF728FF30
:1038F0006846FEF74CFD06E0324629464046FFF793
:1039000046FFFEF71DFD0028F6D13846FFF718FFE9
:10391000FDF7A2FEBDE8FC8103490A46BEE70000B0
:10392000241C0020D406002001F0FFFF10B5040085
:1039300004D10B48B0F94C40002C10D0FDF794FE98
:103940002046FDF711FCB0F9180020B1FDF70CFC82
:10395000816889688847BDE81040FDF77DBE10BDCD
:10396000241C002070B504460025FDF77DFE1CB91F
:103970000648B0F94C4024B12046FDF7F5FBB0F9FC
:103980000650FDF769FE284670BD0000241C00208B
:1039900070B504000D4604D10948B0F94C40002C24
:1039A0000DD0FDF761FE2046FDF7DEFBB0F90610F5
:1039B000A94200DDC580BDE87040FDF74DBE70BD79
:1039C000241C002070B504000E46154604D1124890
:1039D000B0F94C40002C1ED0FDF746FE2046FDF706
:1039E000C3FB2DB2458036B204460680FEF712F8BE
:1039F000B4F9180058B1FDF7B7FBB4F90410818091
:103A000029B1B4F90610C18009B106804580BDE82E
:103A10007040FDF721BE70BD241C002010B5044687
:103A2000FDF722FE1748B0F94C00FDF79DFB04831B
:103A3000BDE81040FDF710BE10B50446FDF714FEBA
:103A40002046FDF791FB8189491E09B2818111B998
:103A50002046FDF7D5FBBDE81040FDF7FDBD2DE983
:103A6000F0470646089D884614469946B0682246A7
:103A7000641C47684B4641463046B8476D1EF5D139
:103A8000BDE8F087241C002070B5054600F024F93D
:103A900009E0AC4201D1002407E0FDF765FBB0F975
:103AA0001A00A84201D00400F3D1204670BD10B521
:103AB000040008D0FDF7D8FD2046FDF755FBB0F90E
:103AC0001640FDF7C9FD204610BD000070B586B058
:103AD00005460E460024FDF7C7FD0948B0F9000071
:103AE00040B10E21009102AA03A962C2694600F00A
:103AF000FDF80124FDF7B0FD06B0204670BD0000C2
:103B0000E806002010B5FDF7AFFD00F0FFF800F06B
:103B10000DF9FEF715FEBDE81040FDF79DBD000054
:103B200010B5B0F90030B0F90240C91A00F1140321
:103B30000069121B02FB003000EBE10001F00703FB
:103B400002788021D9400A43027010BD70B5B0F9E7
:103B5000004000F114050C1BB0F902100069511A65
:103B600001FB0050E11800EBE405491EC810B0EB62
:103B7000E40604F007034FF0FF0201F0070122FA08
:103B800003F0C1F1070102FA01F22978D4B20FD093
:103B90000143761E05F8011B002E05DDFF2231468C
:103BA000284600F084FA354428782043287070BDF8
:103BB00020400143297070BDB0F9061002695143DD
:103BC000143000F07CBA70B5B0F90660B0F904505A
:103BD0000B6800F11404964220DD0069AB4202FB41
:103BE000004000EBE30419DAA5F101054FEAE50016
:103BF000A0EBE30514F8010B03F0070200FA02F052
:103C0000C0B208E055B114F8010B03F10803A5F1A7
:103C1000010523F007030028F4D007E0002070BD61
:103C20004FEA40604FEA106003F101030206F7D546
:103C3000FF280AD01A4605E04FEA40604FEA1060BC
:103C400002F101024606F7D400E0DA1DD043400736
:103C500006D007E014F8010BFF280FD102F108028B
:103C60006D1EF7D5A2EB030000F101000B6070BDE3
:103C70004FEA40604FEA106002F101020406F7D4F7
:103C8000F0E7FDF7BDBA2DE9F047804602F10F00DD
:103C90000011440003FB04F01430894617461E4609
:103CA00000B2FDF74DF8050012D0FDF7DDFC284607
:103CB000FDF75AFAA0F80080A0F802908780C6802D
:103CC00004498160012181810461FDF7C5FC28461A
:103CD000BDE8F0876C8C000810B5FFF7E8FE0028FF
:103CE00003D0FDF741FAB0F9180010BD70B50C46CD
:103CF0000546FDF739FAA5800269204612B1BDE8F4
:103D000070401047BDE87040FEF7CBBC0548016825
:103D1000054881640021A0F84C10011D0161FDF7E8
:103D200079BE0000D4060020241C002010B5064CEB
:103D3000206BFDF78DFEFDF703FD606BFDF788FE40
:103D4000BDE81040FDF705BD241C00200FB4044958
:103D500010B503AA029800F0B1FA10BC5DF814FB8C
:103D6000CC3700200FB41CB5074B06AA7B4469462C
:103D70000090059800F073FA0020694600F082FA7E
:103D80001CBC5DF814FB0000150500002DE9F04196
:103D900004460E4600200AE0E1682046884738B312
:103DA000252806D0D4E901219047206A401C2062D2
:103DB000F2E7E168204600278847050018D0A5F102
:103DC0004100192802D820354FF4006732462946B1
:103DD00020462760FCF7FAF940B1012804D0F61D0F
:103DE00026F007060836D7E7361DD5E72846D9E777
:103DF000206ABDE8F08170B505460C46012A05D061
:103E00002868800600D5EA69002302E0012305E066
:103E10005B1C934202D2E05C0028F9D1A869E61845
:103E2000C01AA861286A184428622846AFF30080A7
:103E300004E0D5E9012114F8010B9047B442F8D30E
:103E40002846AFF3008070BD2DE9F04107460025FC
:103E500010687529394616A411D0AFF300800028E8
:103E600003DAC0F1000013A407E039688A0701D51E
:103E700011A402E0490704D510A4012501E0AFF325
:103E8000008000210A2307F1240607E0B0FBF3F2CB
:103E900003FB1200303070541046491C0028F5D145
:103EA0002B4622463846BDE8F04100F077B90000C5
:103EB000000000002D0000002B000000200000008A
:103EC00070B5064600F066F90468054630460A22D9
:103ED000002100F005FA2C6070BD70B5064600F0B8
:103EE00059F90468054630460A22002100F0F8F925
:103EF0002C6070BD40EA0103024630B59B0710D12B
:103F00004FF0013400E008C208C91D1B9D4315EAAB
:103F1000C41FF8D013F0FF0102F8011B0DD01B0ADB
:103F2000F8E711F8013B002B02F8013B05D011F82E
:103F3000013B002B02F8013BF3D130BD032A40F2D4
:103F4000308010F0030C00F0158011F8013BBCF13B
:103F5000020F624498BF11F801CB00F8013B38BF53
:103F600011F8013BA2F1040298BF00F801CB38BF61
:103F700000F8013B11F0030300F06780083AC0F03D
:103F8000088051F8043B083A51F804CBA0E8081027
:103F9000F5E7121D5CBF51F8043B40F8043BAFF35A
:103FA0000080D20724BF11F8013B11F801CB48BFB4
:103FB00011F8012B24BF00F8013B00F801CB48BFEA
:103FC00000F8012B7047431A28BF9A427FF6B6AF1C
:103FD000032A1044114440F2268010F0030F1EBF44
:103FE00011F8013D521E00F8013D10F0030F7FF45F
:103FF000F6AF11F0030300F0BE81083AC0F00B8069
:1040000051F8043D083A51F804CD40F8043D40F819
:1040100004CDFFF7F3BF121D5CBF51F8043D40F81B
:10402000043DAFF30080D20724BF11F8013D11F821
:1040300001CD48BF11F8012C24BF00F8013D00F864
:1040400001CD48BF00F8012C704710B5203AC0F0F0
:104050000B80B1E81850203AA0E81850B1E8185089
:10406000A0E81850BFF4F5AF5FEA027C24BFB1E8C6
:104070001850A0E8185044BF18C918C0BDE8104037
:104080005FEA827C24BF51F8043B40F8043B08BF40
:104090007047D20728BF31F8023B48BF11F8012B07
:1040A00028BF20F8023B48BF00F8012B704702F000
:1040B000FF0343EA032242EA024200F088B94FF0CC
:1040C000000200B5134694469646203922BFA0E868
:1040D0000C50A0E80C50B1F12001BFF4F7AF090774
:1040E00028BFA0E80C5048BF0CC05DF804EB890065
:1040F00028BF40F8042B08BF704748BF20F8022BA8
:1041000011F0804F18BF00F8012B70474FF0013CB1
:1041100050F8042B51F8043B9A4221D1A2EB0C0336
:10412000934313EACC1317D150F8042B51F8043BF6
:104130009A4215D1A2EB0C03934313EACC130BD193
:1041400050F8042B51F8043B9A4209D1A2EB0C031E
:10415000934313EACC13DBD04FF00000704700BF4D
:10416000D01A01BAB1FA81F101F0180122FA01F076
:10417000CB40C1F12001DBB2C0B2C01A2CFA01F36E
:10418000D11A914311EAC311E6D1704770477047C5
:1041900070470000004870476C3800202DE9F04758
:1041A0000D4604469246994600F1240801688806A7
:1041B00004D5E06921F01001216000E00120A8424F
:1041C00002DDA0EB050700E00027A16907EB05026F
:1041D00002EB0900A1EB0000A0612068C00602D438
:1041E0002046AFF30080002608E0D4E901211AF848
:1041F00006009047206A401C761C20624E45F4DB86
:104200002068C0060AD52046AFF3008006E0D4E956
:10421000012130209047206A401C2062381EA7F1FF
:104220000107F4DC07E0D4E9012118F80500904704
:10423000206A401C2062281EA5F10105F3DC2046FF
:10424000AFF300802068000602D50220BDE8F087A9
:104250000120FBE701694A1C02610878704700B53C
:104260008FB0CDE901310021059105497944CDE9AF
:10427000031011466846FFF789FD0FB000BD00002E
:10428000E5FFFFFF0A6802F8010B0A60704710B5EE
:10429000436913B1AFF3008001E0FFF7ACFD0120EB
:1042A00010BD126800F124010A7000224A70012238
:1042B000EDE711684FF0FF32E9E70000074B70B5FA
:1042C0000C467B44FFF7CBFF0546204600F0FBF889
:1042D00010B14FF0FF3070BD284670BDE3360000CE
:1042E0002DE9F0470F46914680460446002614F813
:1042F000015B2DB100F090F80068405DC007F6D179
:104300002B2D02D02D2D18D0641E4A46394620464A
:1043100000F08AF827B13968A14201D1C7F80080BE
:104320004FF0020471050BD54042002803DDFFF772
:1043300031FF0460A007BDE8F08746F48066E4E73B
:104340000028F8DAFFF726FF04606FF00040F2E77C
:10435000431A28BF9A427FF678AE104410F0030F3C
:1043600011441EBF11F8013D521E00F8013D10F02E
:10437000030F7FF4F6AF103AC0F00A8010B531E9B0
:104380001850103A20E91850BFF4F9AFBDE81040BA
:10439000530724BF31E9081020E9081044BF51F841
:1043A000043D40F8043D12F0030F08BF7047D207E8
:1043B00028BF31F8023D48BF11F8012C28BF20F872
:1043C000023D48BF00F8012C70474FF0000204295D
:1043D000C0F0128010F0030C3FF473AECCF1040C6B
:1043E000BCF1020F18BF00F8012BA8BF20F8022B68
:1043F000A1EB0C01FFF765BE5FEAC17C24BF00F8AA
:10440000012B00F8012B48BF00F8012B704700007A
:10441000004870476C38002010B500F04DF9001DC1
:1044200010BD00BF893700002DE9F05F82468B4642
:10443000154600270AF10104B9460078302801D05A
:104440009DB113E014F8010B0127782803D05828F8
:1044500001D045B10AE00DB1102D07D1002714F8A5
:10446000010B102502E0082500E00A250026B046D1
:104470000EE005FB080005FB06F101271FFA80F896
:1044800001EB1046B6F5803F00D3B94614F8010B96
:10449000294600F03CF90028EBDABBF1000F05D00B
:1044A0000FB1641E00E05446CBF80040B9F1000F94
:1044B00006D0FFF76FFE02210160C81EBDE8F09F25
:1044C00048EA0640FAE7C06800F080007047000044
:1044D00010B542485021FFF7F2FD41485021FFF747
:1044E000EEFD40485021FFF7EAFD3F483B493C4B79
:1044F0003F4A01603D4803603A4810605A1CCA6454
:10450000411CD9640121C1643B48344A39A1784433
:1045100000F02EF920B9384878440A3800F0CAF97A
:1045200037482F4A35A1784400F022F920B93448A1
:1045300078440A3800F0BEF932482A4A2FA178445C
:1045400000F016F920B92F4878440A3800F0B2F983
:1045500040232248DC000021224600F0E6F820B18A
:1045600025487844543800F0A5F91D4822464023D8
:10457000002100F0DAF820B121487844543800F0E6
:1045800099F9184822461023002100F0CEF800289F
:1045900006D01C487844BDE81040563800F08AB96F
:1045A00010BD104870B5C06C20F001040B4800F03D
:1045B00055F90B4800F052F90A4800F04FF909E0AC
:1045C000E06C20F00105204600F048F9204600F09C
:1045D00077F82C46002CF3D170BD00007C3700200A
:1045E000CC3700201C3800202007002024070020A2
:1045F00028070020720000007247000077000000CA
:104600005E4700004A4700000EB5CDE9000100F00A
:10461000E7FA029069460120ABBE0EBD08B56946B7
:1046200000900220ABBE08BD1FB58DE807006946AB
:104630000520ABBE04B010BD1FB58DE80F00694664
:104640000620ABBEF6E708B5694600900920ABBE70
:1046500008BD1CB5CDE9000169460A20ABBE1CBDF2
:10466000704708B5694600900C20ABBE08BD754682
:10467000FFF7CEFEAE4605006946534620F0070020
:10468000854618B020B5FBF7CFFDBDE820404FF0C0
:1046900000064FF000074FF000084FF0000B21F02C
:1046A0000701AC46ACE8C009ACE8C009ACE8C009F9
:1046B000ACE8C0098D467047004870478C38002030
:1046C00070B50446051F00F0FDF80068002C14BF0B
:1046D000446870BD002C18BFA54284BF20466468A2
:1046E000F8D801680A18AA4218BF456003D12A68A1
:1046F00005461144016028684119A1421CBF6C6045
:1047000070BD6168696021680844286070BD3A28FE
:1047100000D2303820F02002412A01D3A2F1370024
:10472000884201D34FF0FF30704770B5C468A507C9
:1047300013D0650211D4B2F5807F09D0B2F5007FA5
:1047400006D0B2F5806F08D1012300F1240106E004
:104750005D1E6FF07F46B54201D3012070BD01613F
:10476000C361416024F470611143C160002070BDD9
:104770002DE9F04107460C461646104600F06EF84B
:104780002078611C61280AD0722802D077283CD199
:1047900002E00125002405E00225042402E00824AB
:1047A00048F2020511F8010B2B2806D0622809D027
:1047B00011F8010C74280AD00BE045F0030544F011
:1047C0000204EFE745F0040544F00104EAE744F091
:1047D000100438462146FFF717FF411C15D0002171
:1047E000316171604FF40071F560F1617061200713
:1047F00004D530460222002100F0DEF8F06C40F0D3
:104800000100F0643046BDE8F0810020FBE72DE9AF
:10481000F04105460E46104CE06CC10704D041083B
:1048200004D020F00104F7E722460EE0502000F00B
:1048300094F807000ED0E06C47F0010108435021C6
:10484000E0643846FFF73BFC3A4631462846BDE86F
:10485000F0418DE70020D6E77C3700202DE9F047B6
:1048600004464FF000094FF0FF37C568D4E90486CD
:10487000A80707D0204600F04FF93046FFF7CEFEDC
:10488000002802DA3846BDE8F087280502D5404600
:10489000FFF716FF48212046FFF711FCE06C20F0DF
:1048A0000100E0644846EEE70446AFF3008020468E
:1048B000FBF7B4FC10B500F079F9BDE8104000F04A
:1048C0006FB97047004870477438002070477047D0
:1048D0007047704738B504460A4600206946AFF372
:1048E0000080002808BF38BD02460099204600F02D
:1048F000A8F9012038BD012000F0F9B9F8B5AFF3EF
:104900000080054600200C46102000BF0646A8196E
:10491000A0420DD9324669460020AFF3008007005F
:1049200008BF00F0E4F90098A04218BF0546C4197A
:10493000FFF7C8FF05600746F01D20F00700461985
:10494000284600F077F9B44208BFF8BDA21B3146F3
:104950003868BDE8F84000F074B970B50646FFF756
:10496000B1FF056806F10B0020F00704B4429CBFBC
:10497000002070BD2B466A68BAB11068A04210D3FF
:1049800004F1080188423CBF5068586007D3516861
:10499000101941601168091B016058601460101DF6
:1049A00070BD13465268002AE7D121462846FFF71A
:1049B00091FF0028DED170BD2DE9F04104460D467F
:1049C00016464769C06880072ED03846FFF73BFE81
:1049D00050BB3EB3012E02D0022E25D104E020466A
:1049E00000F049F905441DE03846FFF73AFEE1685A
:1049F000002841F01001E16005DA204600F058F887
:104A00000120BDE8F081C9030BD5E26A61688A42E2
:104A100000D91146A26911442269891A814200DD38
:104A200008460544002D01DA0220EAE7E16A6068E1
:104A3000E268814206D29103E06203D522F400319C
:104A400041F010024FF0000CA669AE4211DCE16AA1
:104A5000814201D90B4600E003469F192369FF1AE2
:104A6000AF4206DD814201D90F4600E007469F4272
:104A700007D1C4F808C0C4F800C042F02000A56205
:104A80000DE0AD1BE669AE1B8142A66000D9084669
:104A9000C01A281A20605819606022F020000349CB
:104AA0000840E060002084F844C0AAE7BFCFD7FFE9
:104AB000C16821F4001141F08001C16000218160D2
:104AC000016070472DE9F04781460E4614464FF0CD
:104AD000FF383248D5685769054209D03846A16980
:104AE000FFF7B7FD002811DB2C48C0430540E56007
:104AF0002B46324649463846FFF796FDA16920F01D
:104B00000042B21A11440028A16103D02046FFF7E9
:104B1000CFFF4046BDE8F08770B504460569C06A1E
:104B20006168884200D80846E16821F42011E160FC
:104B3000C90312D5A84208D02246411B2846FFF7D8
:104B4000C1FF10B14FF0FF3070BD0020E562C4E935
:104B50000150E06820F48030E060002070BD10B5A6
:104B60000446C06820F02000E060A16AA069884285
:104B70000DD02046FFF7D0FFE06820F4405040F011
:104B80001000E060A06AA0612069E062606044F209
:104B90004001E0688843E06010BD000010000200A2
:104BA000002801D000F03CB87047000010B5014665
:104BB00002A000F083F8012010BD000053494752C5
:104BC000545245443A2052656469726563743A20D0
:104BD00063616E2774206F70656E3A2000000000DC
:104BE00010B5431C02E010F8011B71B18107FAD126
:104BF0004FF0013202C88C1A8C4314EAC211F9D06A
:104C0000C01A0A0603D0C01E10BDC01A10BD0A0487
:104C100001D0801E10BD0902FCD0401E10BD000056
:104C200001491820ABBEFEE726000200004870478D
:104C30007038002000210160C0E901107047102089
:104C40007047034640688C46002818BF814284BFE5
:104C500003464068F8D818681844884207D00CF119
:104C6000030020F00700001D411A521A0146081DDA
:104C70000A60FFF725BD10B50146C268900703D052
:104C8000900607D5886A0BE0FFF784FA01210160DE
:104C9000881E10BD8B69486818440B69A0EB03009F
:104CA00091F8443023B191F84510A0EB010010BDFC
:104CB0001103FCD50028FADD401E10BD70B5054675
:104CC0000C460A2000E06D1C00F018F835B1287879
:104CD0000028F8D102E0641C00F010F814B120782C
:104CE0000028F8D1BDE870400A2000F007B810B5E0
:104CF00000F00CF8BDE81040FFF752BF08B5694658
:104D00008DF800000320ABBE08BD000010B50128DF
:104D100005D0002103A0FFF7D1FF012010BD09A19C
:104D2000F8E7000053494752544D454D3A204F751E
:104D300074206F662068656170206D656D6F727993
:104D4000000000003A2048656170206D656D6F724B
:104D50007920636F7272757074656400704700002B
:104D600070B50546044CE9B2204602F0FFFD2088EC
:104D70000006FCD5284670BD0038014010B5044639
:104D800002E0FFF7EDFF641C20780028F9D110BD88
:104D9000FBF72BFC02F0F2FDFCE7704700B585B095
:104DA0004FF40072074BCDE9013203200021CDE919
:104DB0000310052003460090034A044801F02EFC2E
:104DC00005B000BD2C09002028110020914D0008DD
:104DD0007047704701F0ECFD01F0C0FBFFF7DEFF0C
:104DE000002201231146104601F04CFDF8E7704700
:104DF000704710B502F0A0F800F09AFC01F036FA06
:104E00004FF4165002F020FC4FF4EE6002F094FCD8
:104E10004FF4965002F0E4FC02F07CFA02F056FEE9
:104E20000121080202F0BEF8BDE8104000F0D0BB3E
:104E300070477047704770477047704770477047BA
:104E4000704700E0401E0028FCD170470020401C45
:104E5000C028FCDB704700002DE9F04104461546F0
:104E60001E460F488FB2007B800708D514E02A88C1
:104E70003946A0B202F0C7FD761E641CAD1C002EA0
:104E8000F5DCBDE8F0812A881AB13946A0B202F0FB
:104E9000BAFD761E641CAD1C002EF4DCF1E70000A8
:104EA000241C00202DE9F05F0546DDE90A408B4611
:104EB0009246B0F80090B0F802809AF800609248EC
:104EC0001FFA8BF7007B10F0030103F0070004D0FA
:104ED000012912D0022918D107E0082815D2DFE8ED
:104EE00000F067727E8A97A3AFBB08280DD2DFE877
:104EF00000F00C151F29333D4751082805D2DFE883
:104F000000F0BBC3CBD3DBE3EBF3300604D5424662
:104F10003946A8B202F077FD641E70D0700605D540
:104F2000681C4246394680B202F06DFD641E66D0B0
:104F3000B00605D5A81C4246394680B202F063FD92
:104F4000641E5CD0F00605D5E81C4246394680B2A6
:104F500002F059FD641E52D0300705D5281D424687
:104F6000394680B202F04FFD641E48D0700705D567
:104F7000681D4246394680B202F045FD641E3ED0AF
:104F8000B00705D5A81D4246394680B202F03BFD68
:104F9000641E34D0F00705D0E81D4246394680B281
:104FA00002F031FD641E2AD008351AF8016FACE713
:104FB000300601D5424600E04A463946A8B202F022
:104FC00022FD641E1BD0700601D5424600E04A4611
:104FD000681C394680B202F016FD641E0FD0B00680
:104FE00001D5424600E04A46A81C394680B202F08C
:104FF0000AFD641E03D0F00602D5424601E07FE0C0
:105000004A46E81C394680B202F0FDFC641E78D0A6
:10501000300701D5424600E04A46281D394680B295
:1050200002F0F1FC641E6CD0700701D5424600E02E
:105030004A46681D394680B202F0E5FC641E60D025
:10504000B00701D5424600E04A46A81D394680B265
:1050500002F0D9FC641E54D0F00701D0424600E0B3
:105060004A46E81D394680B202F0CDFC641E48D0A5
:1050700008351AF8016F9BE7300603D559462846D4
:1050800001F013F8641E3CD0700603D55946681C25
:1050900001F00BF8641E34D0B00603D55946A81CA5
:1050A00001F003F8641E2CD0F00603D55946E81C25
:1050B00000F0FBFF641E24D0300703D55946281D9D
:1050C00000F0F3FF641E1CD0700703D55946681D1D
:1050D00000F0EBFF641E14D0B00703D55946A81D9D
:1050E00000F0E3FF641E0CD0F00703D05946E81D22
:1050F00000F0DBFF641E04D008351AF8016FBBE72F
:10510000FFE7BDE8F09F0000241C00202DE9F047D8
:105110000646DDE90849904698F8005075488FB278
:10512000B9F1000F007B79D0800707D513F0030099
:105130003AD0012844D002285ED14FE013F003009A
:1051400004D001280BD002281FD113E0A80939464A
:1051500039F81020B0B202F056FC641E70D0C5F3CE
:105160000110394639F81020701C80B202F04BFC57
:10517000641E65D0C5F38100394639F81020B01C93
:1051800080B202F040FC641E5AD005F0030039469C
:1051900039F81020F01C80B202F035FC641E4FD0AC
:1051A00018F8015F361DD1E715F0C00F06D0A80929
:1051B000394639F81020B0B202F025FC641E3FD009
:1051C00015F0300F08D0C5F30110394639F810201A
:1051D000701C80B202F017FC641E31D015F00C0F69
:1051E00008D0C5F38100394639F81020B01C80B2D0
:1051F00002F009FC641E7BD0A80708D005F003006C
:10520000394639F81020F01C80B202F0FCFB641E15
:105210006ED018F8015F361DC6E7FFE7800707D597
:1052200013F0030033D001283BD0022851D144E0D1
:1052300013F0030005D001280AD002281AD110E08B
:1052400056E0AA093946B0B202F0DDFB641E4FD029
:10525000701CC5F30112394680B202F0D4FB641E03
:1052600046D0B01CC5F38102394680B202F0CBFBB8
:10527000641E3DD0F01C05F00302394680B202F0F6
:10528000C2FB641E34D018F8015F361DD9E715F053
:10529000C00F04D0AA093946B0B202F0B4FB641EB4
:1052A00026D015F0300F06D0701CC5F30112394618
:1052B00080B202F0A8FB641E1AD015F00C0F06D0C5
:1052C000B01CC5F38102394680B202F09CFB641E1B
:1052D0000ED0A80706D0F01C05F00302394680B2B4
:1052E00002F091FB641E03D018F8015F361DCEE773
:1052F000BDE8F087241C00202DE9F0470546DDE9D4
:10530000086917463C783B481FFA81F8B9F1000F4D
:10531000007B3AD0800702D5D8071AD024E0D807FE
:1053200008D12009414639F81020A8B202F06BFBE1
:10533000761E5DD004F00F00414639F81020681C3D
:1053400080B202F060FB761E52D0AD1C17F8014F00
:10535000E7E7200906D02009414639F81020A8B215
:1053600002F051FB761E43D0200708D004F00F0056
:10537000414639F81020681C80B202F044FB761ECA
:1053800036D0AD1C17F8014FE3E7800702D5D807E8
:1053900016D01EE0D80706D122094146A8B202F075
:1053A00032FB761E24D0681C04F00F02414680B206
:1053B00002F029FB761E1BD0AD1C17F8014FEBE75E
:1053C000200904D022094146A8B202F01CFB761E37
:1053D0000ED0200706D0681C04F00F02414680B2B0
:1053E00002F011FB761E03D0AD1C17F8014FE7E762
:1053F000BDE8F087241C00202DE9F0410446DDF8CB
:10540000188015461E4620488FB2007B80071CD4AA
:10541000B8F1000F0AD115E02878394638F8102085
:10542000A0B202F0F0FA761E641C6D1C002EF3DCB4
:10543000BDE8F0812A783946A0B202F0E4FA761E7F
:10544000641C6D1C002EF5DCF2E7B8F1000F0BD1E7
:1054500016E0287828B138F810203946A0B202F0BA
:10546000D2FA761E641C6D1C002EF2DCE0E72A786E
:105470001AB13946A0B202F0C6FA761E641C6D1C41
:10548000002EF4DCD4E70000241C00202DE9F041BC
:1054900001F018FF00241C4F1C4E0123002004EBD8
:1054A000840101EBC40107EBC10C56F820105CF835
:1054B00020208D1EAA4202D3891C8A4201D90023D2
:1054C00003E0401CC0B21928EFD30BB1254604E01D
:1054D000FF25641CE4B20D2CDFD3072D03D001DCC3
:1054E000284600E00B2D294609A0FEF72FFC0A22D2
:1054F000012311462846FBF7A7FB0948016841F044
:1055000002010160BDE8F081100000202C11002094
:105510000AEAEDEEEFEAE0203D2025640A000000F3
:1055200014040140704770477047704770477047D8
:1055300030B58379194A016853B313688B431360FC
:10554000111D0B680468A3430B60017911440B68BB
:10555000046823430B60114B083319680468A143A6
:1055600019601C1D21680568A94321604179102933
:1055700005D011440A68006802430A6030BD19680A
:10558000026811431960216800680143216030BD41
:105590000079104402688A43026030BD0004014073
:1055A0007047000004490A6822F010020A600A6885
:1055B00002430A607047000000200240034A11685D
:1055C00001F03801014311607047000000200240E3
:1055D00000B595B0022000900020019005210291B5
:1055E0000390049005904FF0805106910790089029
:1055F0000821099110210A910B900C900D900E90AA
:1056000009020F911090119012906846CDF84CD07D
:10561000149007A800F018F80121002000F002F80B
:1056200015B000BD4FF0204202EB800021B10168AF
:1056300041F00101016070470168024A11400160B8
:1056400070470000FEFF0F0030B5D0E90112114392
:10565000D0E903231A431143426903681143826965
:105660001143C2691143026A1143426A1143826ABB
:105670001143C26A11434FF0204242F8231081685F
:10568000082906D1016802EB81010B6843F0400351
:105690000B60016BD1E9003443EA04138C68CD68D8
:1056A000240244EA054423430C6943EA04534C6949
:1056B000896943EA04630B430168491C42F82130BD
:1056C000816AB1F5804F07D000686FF0704102EB3E
:1056D0008000C0F8041130BD416B0068D1E900348E
:1056E00043EA04138C680D69240244EA05542343F9
:1056F0004C69896943EA046302EB80000B43C0F8FC
:10570000043130BD10B5094C1021204600F064F979
:10571000052001F09CFDA52001F099FDC007FAD1FC
:105720002046BDE81040102100F058B900080140A3
:105730002DE9F84F01217C2001F04CFC4FF4015081
:10574000ADF80000684E6946304600F0EBF8C02026
:10575000ADF80000654F6946384600F0E3F80124D3
:10576000ADF80040DFF888916946484600F0DAF865
:105770000225ADF800506946484600F0D3F8ADF870
:10578000004003248DF8024028208DF8030069466C
:10579000484600F0C7F84FF00808ADF800808DF8D3
:1057A00002406946384600F0BDF8ADF80050DFF819
:1057B00044A16946504600F0B5F84CF23370ADF89C
:1057C00000008DF8024018258DF8035069463046D8
:1057D00000F0A8F84FF68070ADF800006946484622
:1057E00000F0A0F88020ADF800006946304600F0D7
:1057F00099F8F714ADF800706946304600F092F859
:105800008021304600F0EAF84CF20301304600F007
:10581000E5F84FF4F061484600F0E0F80121484611
:1058200000F0DAF80221484600F0D6F810213046A0
:1058300000F0D4F82021304600F0D0F80121880390
:1058400001F0C8FB4FF48069ADF8009004268DF894
:1058500003606946504600F065F8F001ADF80000BD
:105860008DF802408DF803506946504600F05AF812
:105870000121480401F0A2FBADF800808DF803601F
:105880006946504600F04EF8ADF800608DF80240D1
:105890008DF803506946504600F044F80121880411
:1058A00001F08CFBADF800708DF80360124E694674
:1058B000304600F037F8ADF800908DF802408DF8D2
:1058C00003506946304600F02DF82002ADF8000084
:1058D0008DF8024048208DF803006946304600F0FC
:1058E00021F8BDE8F88F00000014014000100140CD
:1058F0000018014000080140000C014010B58A0763
:10590000120F0F23934021F00304054921448C68B2
:105910009C438C608B68904003438B6010BD0000FB
:10592000000001402DE9F0410022CC7804F00F0383
:10593000E40601D58C7823430C884FF00F0714F050
:10594000FF0F4FF0010C1CD005680CFA02F40E8812
:105950002640A64211D1960007FA06F825EA080566
:1059600003FA06F848EA0505CE78282E02D0482E1C
:1059700002D002E0446100E00461521C082AE4D332
:1059800005600A88FF2A1ED94568002202F1080630
:105990000CFA06F40E882640A64210D1960007FAAB
:1059A00006F825EA080503FA06F848EA0505CE7860
:1059B000282E00D14461CE78482E00D10461521CBB
:1059C000082AE3D34560BDE8F081024600209268D2
:1059D0000A4200D001207047416170470161704761
:1059E0002DE9F05F0446DDF828A08B4617461E46D9
:1059F000B34511D1BC4201D8254609E03D462746B2
:105A000006E052465946284601F0FDFF6D1CADB236
:105A1000BD42F6D9BDE8F09F04D9ABEB06001FFAF2
:105A200080F903E0A6EB0B001FFA80F9BC4210D10D
:105A3000B34501D85D4609E035465E4606E052466C
:105A40002946204601F0DFFF6D1CADB2B542F6D904
:105A5000E0E707D9E01B1FFA80F83D4627463446A9
:105A60005E4604E0381B1FFA80F825465C46C845B0
:105A70000ED010E06D1CADB2B44202D9641EA4B2C7
:105A800001E0641CA4B252462146284601F0BBFF47
:105A9000BD42EFD9BEE752462146284601F0B3FF8A
:105AA000B44245D2C84521D9C8EB490006B24FEAF5
:105AB00049000FFA80FBA9EB080040000FFA80F8BC
:105AC00011E06D1CADB2002E03DA06EB0B0006B23E
:105AD00004E0641CA4B206EB080006B2524621465C
