:020000040800F2
:10000000B04B0020010100080501000807010008AD
:10001000090100080B0100080D01000800000000A4
:1000200000000000000000000000000011010008B6
:100030000F0100080000000083020008D58E0008B0
:100040000F930008FF8A0008F98E0008DD8D000874
:100050004F6E0008558D0008416E0008456E00087F
:10006000476E0008496E00084B6E00087D66000868
:100070007F660008816600088366000885660008C0
:1000800087660008896600087F6400080B930008F3
:100090000D93000821650008236500084D6E0008D7
:1000A000FB8E0008018F0008FF8E0008FD8E0008FF
:1000B000038F0008058F0008078F0008EF760008FF
:1000C000ED760008F3760008F1760008DF8D000871
:1000D000E18D0008098F00082190000811910008A7
:1000E000436E0008DB8D0008099300080000000043
:1000F0000000000000000000000000000000000000
:1001000004480047FEE7FEE7FEE7FEE7FEE7FEE7FE
:10011000FEE700001901000800F002F800F072F894
:100120000AA090E8000C82448344AAF10107DA4552
:1001300001D100F067F8AFF2090EBAE80F0013F032
:10014000010F18BFFB1A43F001031847981601006E
:10015000B81601000A444FF0000C10F8013B13F0F0
:10016000070408BF10F8014B1D1108BF10F8015B10
:10017000641E05D010F8016B641E01F8016BF9D103
:1001800013F0080F1EBF10F8014BAD1C0C1B09D15A
:100190006D1E58BF01F801CBFAD505E014F8016BCC
:1001A00001F8016B6D1EF9D59142D6D3704700005E
:1001B0000023002400250026103A28BF78C1FBD870
:1001C000520728BF30C148BF0B607047642904F054
:1001D0008184782904F0E884002070471FB50AF074
:1001E00092FA05F047F804000020002109F07EFC97
:1001F000401C60600020002109F062FCE0601FBD2F
:1002000010B510BD05F008F81146FFF7E7FF09F03B
:10021000B1FB05F0F9FA03B4FFF7F2FF03BC05F0F8
:100220003BFB000002480349034A044B70470000AF
:10023000B0430020B04B0020B0470020B047002062
:10024000EFF3108072B6704780F31088704724482F
:100250004FF0FF010170002080F309881D48012143
:10026000017020484FF08051016062B6FEE71D48E2
:100270004FF08051016070471A484FF08051016083
:100280007047EFF3098028B1203880E8F00F124959
:100290000968086000B50A4880475DF804EB0B4820
:1002A0000B490A7802700C480C490A680260106811
:1002B00090E8F00F203080F309884EF0040E70476C
:1002C000F1830008097F000822000020240000209C
:1002D0002500002027000020440000204C000020C2
:1002E00022ED00E004ED00E072B6704762B67047A0
:1002F000EFF3108072B6704780F3108870470000EB
:1003000010B50022C0F30B00B0F5006F02DDA0F5C0
:1003100000600122B0F5806F01DDC0F5006083113F
:10032000F94C00F03F00C0F1400134F8130048439D
:10033000402906D004EB4303C1F140015B8803FB75
:100340000100203081094842002A00D1084610BD32
:1003500000F58060D4E7ED4B1A7D012A05D0521ECE
:1003600002EBD272521002F079BD9A6D52681047BA
:100370002DE9F84F141A05465F1A884691469B46A8
:100380004FF0000A54EA07002CD0204600F028FA6B
:100390000646384600F024FA86420ADA20463C46F1
:1003A00007462846454680464846D94683464FF08C
:1003B000010A204600F014FAA04203D064427F42B2
:1003C0004D46D84604EBD4704FEA6009002F01DA9D
:1003D000C9F10009DFF834B34FF000069BF81600AE
:1003E00098B132E02846BDE8F84FB4E707FB069025
:1003F00090FBF4F101EB0800BAF1000F09D0DBF833
:100400005820A91952689047761CA642EEDDBDE837
:10041000F88FDBF85810AB194A6801461846F2E726
:1004200007FB069090FBF4F101EB080000903046CA
:1004300000F01CFA40B9BAF1000F09D0DBF85800FF
:10044000A919426800989047761CA642E8DDDEE7CD
:10045000DBF85810A8194A680099F4E72DE9FF471E
:100460000746AA4815468846027D1E46012A1DD029
:10047000781BA8EB060150EA01036ED0A2F1010936
:1004800000F0B2F900F5806C00F50060FFF738FF6E
:1004900000FB09F46046FFF733FF00FB09F1002C75
:1004A0000ADAC4F500708012404208E004B02A461F
:1004B0003846BDE8F0475BE704F50074A012002958
:1004C00004DAC1F500718912494202E001F50071B8
:1004D0008912002804DD421C02EBD272521003E0A4
:1004E00000EBD0725210401E00EBD0704310002978
:1004F00004DD481C00EBD070401003E001EBD1702C
:100500004010491EBC18ADF8004008EB0004ADF8DF
:100510000240FC1A01EBD1714910ADF80440A8EB80
:100520000104EB1AADF80830711AADF80A10A918D9
:10053000ADF80C103044ADF80E000023ADF80640C5
:100540001A460421684601F0EEFE4146384600F0A6
:10055000C9F93146284600F0C5F9BDE8FF872DE905
:10056000F04104460D4616461F4602F0D7FD674887
:10057000016C406C0C44054407440E44002001F01B
:1005800014FB07E03B46324629462046FFF766FF4C
:1005900001F0E4FA0028F5D1BDE8F04102F0B6BD63
:1005A00070B55A4C05460E46B4F92810B4F9260029
:1005B00033462A46FFF752FFE584268570BD534A2D
:1005C000D084118570472DE9F04105460446B0F905
:1005D00002008846C118B4F9000016461F461044B0
:1005E000FFF7EDFF07E0B4F90600C11934F9040F75
:1005F0003044FFF7D5FFA8F10108B8F1000FF2DC95
:10060000B4F90010B5F90000814205D1B4F9021027
:10061000B5F90220914206D0B5F9021030443944B0
:10062000BDE8F041BCE7BDE8F0812DE9F0410646A8
:100630000F4614461D4602F071FD3448016C406CB3
:100640000C440544002001F0B0FA07E02B46224696
:1006500039463046FFF7B7FF01F080FA0028F5D1A0
:10066000BDE8F04102F052BD70B504460D4602F0FF
:1006700055FD264AD08C2044D084108D2844108506
:10068000BDE8704002F042BD70B504460D4602F070
:1006900045FD002001F089FA60B11C4EB6F9281022
:1006A000B6F926004B190219FFF7D8FE01F056FAE9
:1006B0000028F3D129462046FFF7D6FFBDE8704059
:1006C00002F024BD70B505460E4602F027FD0F4C22
:1006D000206C0544606C0644002001F066FA09E0D5
:1006E000B4F92810B4F9260033462A46FFF7B6FEBF
:1006F00001F034FA0028F3D131462846FFF75FFFB6
:10070000BDE8704002F002BD4AAA0008E0270020C0
:1007100070B504460D4602F001FD754A106C516C2F
:1007200020442944FFF74BFFBDE8704002F0EEBCC7
:100730002DE9FC4106460D461446984602F0EEFCB3
:100740006B490B7D086C496C871906195B1EF81AFA
:10075000ADF80000F0180D44ADF80400E81A01EB04
:100760000804ADF80200E018ADF80600684601F094
:100770001CFA15E032462946384602F07BFD324627
:100780002146384602F076FD621E691C384602F0AA
:10079000E7FE621E691C304602F0E2FE01F0DEF95F
:1007A0000028E7D102F0B2FCBDE8FC8170B5044638
:1007B0000E4602F0B3FC4E4A106C0519506C8419B9
:1007C000002001F0F2F905E021462846FFF7C3FDBD
:1007D00001F0C4F90028F7D1BDE8704002F096BCE2
:1007E000002800DC4042704710B50022002801DAE2
:1007F00001224042002902DA42F0020249428142CB
:1008000004DD0B460146184642F00402890200EB63
:10081000D07301EB630191FBF0F080100311354CB4
:1008200000F00F00C0F1100134F913004843102903
:1008300007D004EB4303C1F11001B3F9023003FB0D
:10084000010000F108004FEAE07100EB11704FEA7F
:100850002010510701D5C0F58060D10701D0C0F547
:100860000060910701D5C0F5805010BD20490122DC
:10087000897D012906D002290FD0032917D0042928
:100880002ED11DE0801DC11700EB117121F00F0169
:10089000401A0C2809DB002207E0C11700EB917118
:1008A00021F00301401A0228F5DA1046704714219E
:1008B00090FBF1F201FB12000C280FDB10380BE06B
:1008C000182190FBF1F201FB12000C2806DBA0F1CD
:1008D0001001022902D31438022801D201207047E6
:1008E00000207047024A527D002A00D133E570474C
:1008F000E02700206CAA000870B506460C46154695
:1009000002F00CFC044844848584304601F078FCF5
:10091000BDE8704002F0FABBE027002010B50446A5
:1009200002F0FCFB0F488484002402F0EFFB204619
:1009300010BD10B5044602F0F1FB0A4844840024BF
:1009400002F0E4FB204610BD70B504460D4602F0EF
:10095000E5FB044A54840024958402F0D7FB20462A
:1009600070BD0000E027002010B5044602F0D6FB61
:10097000204602F0CFFDBDE8104002F0C7BB10B525
:10098000044602F0CBFB204602F0D0FDBDE810404B
:1009900002F0BCBB70B5054E0446B56902F0BEFB63
:1009A00004B1B46102F0B2FB284670BDE02700201C
:1009B0002DE9F0433F4D044687B0A869B5F92A8078
:1009C0002146806900F06BF8002847D04168008814
:1009D000201A01EBC0044046A67802F01DFC8146B7
:1009E00062680120CDE902062B46CDE90423A869FF
:1009F000C37D827DCDE90023037D2278B5F92410E3
:100A0000B5F9220002F071FCA869467D077DBE425F
:100A100019D9C07D46434743B8F1020F13D001F006
:100A2000E7FD804601F0CEFDFFF7A9FFB5F92200F2
:100A300021784218B5F924108B19394402F035FC9D
:100A40004046FFF79CFF484602F0E6FBAA69B5F96D
:100A500022006178927D01FB0200688407B0BDE846
:100A6000F08370B5134C05462946A069806900F0F3
:100A700016F8002807D041680088281A11F83000BD
:100A8000A169897D484370BD01200880704710B579
:100A9000806900F004F8002800D0012010BD06E0B5
:100AA00002888A4202D842888A4202D2806800289C
:100AB000F6D17047E02700202DE9FC4104460D46A1
:100AC00016461F4602F02AFB042002F0A5FB33491C
:100AD0008046086C496C044406440D440F44ADF84C
:100AE0000040ADF80460ADF80250ADF806706846FD
:100AF00001F05BF807E03B4632462946204602F00B
:100B0000D4FB01F02BF80028F5D1404602F084FB1D
:100B100002F0FCFABDE8FC8110B500210846FFF7A1
:100B200013FF40F6FF725042BDE8104013460146E5
:100B3000C2E770B51A492E20087006F0AFFD1948BB
:100B4000164C0068251D2561A064201D02F02CFDB7
:100B50001548A06515482561A0610120207502F0A7
:100B6000F5FDA087032084F85C006FF070402063DF
:100B70006063002002F0CEFC6FF07F4002F0D6FCF4
:100B80000B48E06102F012FB02F0A3FC044601F006
:100B9000F5F902F011FB204670BD0000E0270020AF
:100BA000DC0000207001002090AA00082815010830
:100BB000E40D0108FC4B30B4B3F902408C4210DC68
:100BC000B3F906408C420CDBB3F90040844208DCE8
:100BD000B3F90430834204DBF44B1B685B6A30BC1E
:100BE000184730BC7047F04AB2F902308B420DDC36
:100BF000B2F906308B4209DBB2F90030834205DCE2
:100C0000B2F90420824201DB07F023B800207047CC
:100C1000E54A10B5203A9068002813D0416813695E
:100C2000591A02F11803198084685269121B5A80FC
:100C3000046824882144491E998000684088104433
:100C4000401ED88010BDD84910B52039097851B15F
:100C500028B1D549083901F057FD002802D000F02D
:100C600098F9012010BD002010BD00F0ADB910B5FD
:100C700002F054FACC4920398878401E10F0FF0069
:100C8000887001D100F0A0F9BDE8104002F03EBA32
:100C900010B502F043FAC44920398878421C8A70A2
:100CA00008B900F076F9BDE8104002F02FBA2DE93E
:100CB000F047064602F032FABB4F203FB868814643
:100CC00086422FD035680424E8680068042800DCD8
:100CD0000446DFF8D48208F1080807E0E868806875
:100CE00050F8240002F00EFC28F81400641EF5D21F
:100CF00000F04FF92888698848434400F868844226
:100D000005D0B7F9040001F07DFE0020B88020B2C4
:100D100001F062FAB88001207870BE60FFF778FFBA
:100D200000F052F902F0F2F94846BDE8F08710B53C
:100D300002F0F4F900F02DF99B49002020394870A9
:100D40009B4908609B490860BDE8104002F0DEB98D
:100D500010B502F0E3F99848806C016A9248884720
:100D600000F017F9904801212038914A41709349C9
:100D70001160904A92491160806828B100F024F90E
:100D8000BDE8104002F0C2B98E48FFF790FFF7E7C8
:100D90002DE9F34F8FB002F0C1F9834B203BB3F93B
:100DA000040080B301221D690F9C1146A54200D1A9
:100DB00000215D69109CA54200D10022114322D080
:100DC000794920394978C1B3774C203CA16809683A
:100DD0000B9101F0CBFD0A90A0680F9A0068018882
:100DE00009912369A2EB03084FF0FF32B8F1000F1D
:100DF0000ADD012305930023CDE90031491ECDF81A
:100E00001080069109E0AEE0491E0592CDE900127E
:100E10000021049100994144069110996369C91A0F
:100E2000B1F100090ADD01210391408807900025F6
:100E3000401ECDF80890089089E08CE00392458828
:100E400000206D1E02906818CDE907207FE002990E
:100E5000002005EB09078D4203DB08998D4200DC79
:100E600001200C90029900208F4203DB08998F42E9
:100E700000DC01200D90009C64E00A9804EB080659
:100E800000EB440109982A46684301EB400B2146D8
:100E90000B9801F047FB82460020049A01469442D9
:100EA00005DB069A944202DC0C9A02B10121049AF5
:100EB000964205DB069A964202DC0D9A02B10120A9
:100EC0000E90BAF1000F14D039B1A5EB0902A4EBD2
:100ED00008010B9801F026FB58B93348BBF80020F5
:100EE0000838B0F90210B0F9000029442044FFF797
:100EF00061FE0E9838B10A9800EB460109987843D4
:100F000031F810000AE028480838B0F90210B0F9AA
:100F1000000039443044FFF766FE80B2ABF80000B1
:100F20005FEA0A000CD000F023F882B21E480838AD
:100F3000B0F90210B0F9000039443044FFF73AFE2E
:100F4000059804440198844297D103980544079872
:100F500085427FF47CAF14480F99203801611099C5
:100F60004161FFF755FE11B0BDE8F04F02F0CEB879
:100F7000042804DA0C49083131F8100070470A4996
:100F8000203989680968C968896851F8200002F029
:100F9000B9BA10B5044C203C2078002803D000F0EA
:100FA0001FF80020207010BD1401002070010020E7
:100FB000EC000020F0000020E0270020470C000893
:100FC0006B0C0008D80D010849484178002906D06B
:100FD0008178002903D10121017000F03BB87047EE
:100FE0002DE9F04702F09AF8414CB4F9040068B3D7
:100FF00001F0BCFC064604F118008046B0F904106C
:10100000B0F90020A2468F1AB0F90610B0F90220FC
:101010007F1C891A01F10109002515E000240AE06E
:10102000B8F90210B8F9000036F814202944204419
:10103000FFF7C0FD641CBC42F2DBDAF808006D1C4F
:101040000068008806EB40064D45E7DBBDE8F04749
:1010500002F05CB82DE9F04702F060F82449B1F9DC
:101060000400F0B38968D1F800A001F07FFC204FA4
:1010700006461837B7F90400B7F90010401A00F116
:101080000108B7F90600B7F90210401A00F101098A
:10109000002524E000241BE0B7F902004119B7F94C
:1010A00000002044FFF79FFD26F814002A46214641
:1010B000504601F037FA50B1FFF75AFF0246B7F930
:1010C00002004119B7F900002044FFF773FD641CCA
:1010D0004445E1DBBAF800006D1C06EB40064D45C7
:1010E00000E000E0D6DBBDE8F04702F00FB80000FA
:1010F000F40000201FB503ABCDF80CD001F031F89F
:10110000684601F07DF81FBD7FB50C461546CDF849
:101110000CD003A901F016F8641EE1B203AB2A4615
:1011200001F01FF8684601F06BF87FBD1FB503A9F9
:10113000CDF80CD000F0E4FF684601F061F81FBD67
:101140007FB5051E01A80C46009006DA69462846C0
:1011500000F0F8FF641E0546E4B2284600F0DEFF0A
:10116000C2B2202003E0009B03F8010B009311465C
:10117000521CD2B2A142F6D36946284600F0C0FF05
:1011800001A801F03DF87FBD0022BDE70022B1E7D4
:101190007FB50D4616461946CDF80CD003AB00229C
:1011A00000F0DFFF324629466846FFF7A5FB7FBD0A
:1011B0002DE9F041074640480E4614461D4650F8BA
:1011C000220009F0C5F9394609F0D6F94FF07C51F3
:1011D00009F05EF809F030F808F0BCFA08F09CFC61
:1011E0003DB109F079F922463146BDE8F041FFF7FB
:1011F0008BBF09F071F922463146BDE8F041FFF797
:1012000079BF0023D4E770B50C46054609F064F9B0
:1012100000F084FFC3B205F1FF40B0F17C5F01D262
:101220005B1CDBB218190CB1012300E00023184449
:10123000C1B222462846BDE870400023B8E770B529
:101240000D46044609F048F900F068FF281A401ED0
:1012500004F1FF41B1F17C5F00D2401E002800DAAA
:101260000020C2B229462046BDE8704000239FE717
:1012700001239DE770B50D46044609F02DF900F0F5
:101280004DFFC3B204F1FF40B0F17C5F01D25B1CA3
:10129000DBB2B4F5000F01DB5B1CDBB258190DB1FA
:1012A000012300E000231844C1B22A462046BDE8CD
:1012B000704001237CE700009C0D01084FF4A070F2
:1012C0007047F02070474FF4A0707047F0207047CF
:1012D000102070474FF48030704701207047012084
:1012E000704740F235207047B0F90010B0F9042083
:1012F000914205DCB0F90210B0F90600814201DD2F
:1013000000207047012070477CB50D4601F02EFB90
:101310000446808B81071CD540F601010840012856
:1013200017D02846FFF7E0FF002812D022462946B2
:10133000684600F0BCFE6846FFF7D6FF002808D0DC
:10134000A08B810606D504F108016A46084601F023
:101350005BF97CBDDDE90012C4E90212FD4940F0F1
:101360002000A083C888401CC8807CBD0B46B0F913
:101370000220B0F90010184601F073B91CB5F64907
:101380000446886B40B10268009240680190F148C1
:10139000B0F9120038B904E02046BDE81C4002F064
:1013A0000DB9B1F93C0001F0E1FA6946FFF7DEFF43
:1013B0002146684600F05EFE684602F0FFF81CBD5C
:1013C0002DE9F04107460E46304601F0CFFA0446BB
:1013D000808B800711D52146384600F04BFEB4F9CA
:1013E00016500DB12E46EFE7DA480A30B0F900008A
:1013F000B04202D10120BDE8F0810020FBE71CB51E
:10140000D44C607818B1BDE81C40D448B6E7D24847
:10141000B0F93C0001F0AAFAD0E90010CDE90010C3
:10142000B4F9121011B16846FFF7CAFF6846FFF71A
:10143000A5FF1CBD2DE9F0470C00064619D001F0B0
:1014400095FA054600206883EC82204601F08EFA6A
:101450000746A88B00F00808B7F918005FEA0009F2
:1014600006D001F083FA0446B8F1000F03D008E07B
:101470003E83BDE8F087A08B000702D5A5F81A903F
:10148000F6E7B4F91A7037B1384601F06FFAB8F1DF
:10149000000F02D007E06683EBE7818B090702D5D6
:1014A00066836F83E5E70446EBE770B5054601F018
:1014B0005DFA0446B0F9160000280AD001F056FA89
:1014C0000646B0F91800A8420ED101F04FFA408B41
:1014D000308370BD01F04AFA0146B0F91A00A84203
:1014E00002D1608B488370BD0028F3D170BD70B508
:1014F000054601F013FE9748B0F9084008E0294678
:101500002046FFF701FF204601F030FAB0F9144001
:10151000002CF4D1BDE8704001F0F8BD70B505466F
:1015200001F024FA0446C08A002807D02846FFF7B5
:10153000BCFF2046FFF7DBFF0020E08270BD70B5E6
:10154000044601F0EBFD844DB5F93C6014B98148C7
:10155000B0F90840AC87204601F008FA044601F0D3
:10156000B3FFB4F900002864B4F90200686401F024
:10157000CDFD304670BD70B505467648B0F908001F
:101580000DE001F0F3F9B0F914100446A94205D1B9
:10159000284601F0EBF9808AA08270BD0846002839
:1015A000EFD170BD70B504000D460ED001F0B6FD50
:1015B000204601F0DBF9016919B1AC8002692846C7
:1015C0009047BDE8704001F0A1BD70BD0EB500911F
:1015D000ADF804006946FFF7E5FF0EBD10B50446FF
:1015E0005C48B0F9080007E0A04201D1012010BD1D
:1015F00001F0BCF9B0F914000028F5D110BD70B5A8
:1016000004004ED001F08AFD2046FFF7E7FFE8B363
:10161000204601F0ABF94F4E05460020B082B6F9E6
:101620001010A14200D13082B6F90E10A14200D1B3
:10163000F081B16905E0B1F90420A24200D18880AF
:1016400009680029F7D10721204602F085F8B5F98D
:10165000180000F027F80B212046FFF7B7FF2046BF
:10166000FFF75CFF2046FFF786FFA88BC10703D07A
:10167000716AA1F101017162800602D5F088401EF5
:10168000F080B088401EB080204600E005E001F008
:10169000B9F9B6F90800FFF752FFBDE8704001F054
:1016A00035BD70BD70B5044608E0204601F05EF916
:1016B000B0F91A502046FFF7A2FF2C46002CF4D1B7
:1016C00070BD14E72DE9FC410D4690463EE001F067
:1016D0004DF9848B0646A00736D55FEA080005D091
:1016E00002463146684600F0E2FC03E0D6E900011C
:1016F000CDE900016946284601F006F820B3E0076D
:1017000002D0B6F918401DE0B6F90200B5F9021092
:10171000884205DDBDF90200401E03E0E88013E0C9
:10172000BDF90600B5F906108842F7DB0CE020464B
:1017300001F01CF907466A4629462046FFF7C2FF1A
:10174000B7F91A40002CF2D1B6F91A000028BED120
:10175000BDE8FC8124010020E0270020482800206B
:101760002DE9FC4788469146002634E001F0FEF85A
:10177000848B0546A0072CD55FEA090005D00246F8
:101780002946684600F093FC03E0D5E90001CDE965
:1017900000016946404600F0B7FFD0B1E00702D033
:1017A000B5F9184013E0BDF80400401CA8F800008B
:1017B00001260EE0204601F0D9F807466A46414668
:1017C0002046FFF7CDFF00B10126B7F91A40002CE3
:1017D000F0D1B5F91A000028C8D13046BDE8FC8721
:1017E0002DE9FC410E46904630E001F0BFF8848BB5
:1017F0000546A00728D55FEA080005D0024629461D
:10180000684600F054FC03E0D5E90001CDE9000191
:101810006946304600F078FFB0B1E00702D0B5F974
:1018200018400FE0BDF80000401EB0800CE02046DC
:1018300001F09CF807466A4631462046FFF7D0FF84
:10184000B7F91A40002CF2D1B5F91A000028CCD112
:101850007EE700224A800A8082880388D21A8A8022
:10186000C2884088101AC88070477FB506000D46B0
:1018700027D001F053FC304601F078F8848BA107A3
:101880001DD5D0E90012CDE9001255B129680291A9
:101890006968039102A9FFF769FD02A9684600F093
:1018A000E9FB31466846FFF78BFD40B140F6010089
:1018B0000440012C06D069463046FFF725FD01F0B3
:1018C00025FC7FBD6846FFF712FEF8E70021CCE754
:1018D0002DE9FF5F0746DDE90E65884691469A4689
:1018E000DDF844B001F01AFCFB4CA08905432EB989
:1018F000A08818B104F10A00B0F90060701C0DD086
:10190000DEB1304601F032F8B0F90010B0F9022033
:101910000F449044B9F1000F02D006E000260CE01D
:10192000B0F90430591A01F10109BAF1000F04D1DC
:10193000B0F90600801A00F1010A0BF1200000B294
:1019400000F04AFC5FEA000B50D0E348E24980888F
:10195000401C8880584601F009F8078007EB090110
:10196000A0F80280491E818008EB0A01491EC1804F
:10197000109901610446818B43F68F702840014322
:10198000D548A183B0F9080050B100F0EFFF074639
:10199000584600F0EBFFB98A8182A7F814B002E044
:1019A000CD49A1F808B031465846FFF743FDA806D7
:1019B00002D55846FFF7C3FDE80704D0C648416A80
:1019C00001F101014162680602D5584601F080FE2E
:1019D000A80707D5A08B002140F00200A08358463D
:1019E000FFF743FF01215846FFF7F0FD01F08EFBA2
:1019F00004B05846BDE8F09F2DE9FF4104460AA80F
:101A00000D4616461F460EC800208DE80F003B46C7
:101A1000324629462046FFF75BFF04B0EBE4AF48AF
:101A2000B0F93C0070472DE9FC41AD4ED6E902010A
:101A3000CDE90001306968B3B089401C00B2ADF84F
:101A400000007189ADF80210B6F90410884206DD75
:101A50003088ADF80000F089401CADF80200BDF9F7
:101A60000200B6F90610884270DC9C4FB7F93C00C2
:101A700000F07CFF0446BDF90000B6F90010884272
:101A800020D1F088ADF80600B088ADF80400B7F9B1
:101A90003C000FE03088ADF800007088DDE700F012
:101AA00065FF0546B0F91A0000226946FFF70AFEF5
:101AB000B5F916000028F2D1B4F9180000226946E1
:101AC000FFF700FEBDF80000ADF80400B7F93C00D8
:101AD0000CE000F04BFF0546B0F91A000022694601
:101AE000FFF73EFE0028EDD1B5F916000028F0D131
:101AF000B4F9180000226946FFF732FE0028E1D150
:101B0000B6F90400BDF90010ADF80400884204DA0B
:101B1000DDE90001C6E902019AE7B7F93C000AE0F5
:101B200000F024FF0546B0F91A0000226946FFF7CD
:101B300057FEB5F916000028F2D1B4F918000022BA
:101B40006946FFF74DFE3069C82801DD0020FFE53A
:101B5000DDE90001C6E902010120F9E570B55E4D3D
:101B60006878002806D05E4C6069012803DD401EBD
:101B70006061002070BD287820B10020287059488D
:101B8000006880472069401C2061FFF74CFF50B17E
:101B9000FFF735FC5448016819B1514808308847AF
:101BA0002870012070BD6069E1E72DE9FF414A4ED0
:101BB0008046707838B14A4D6869401C68610128D8
:101BC00004DD012029E7FFF71AFCFAE7434FB7F9D4
:101BD0003C0000F0CBFE04464FF0FF302861B078A7
:101BE00020B1A0680090E068019006E0A08B80071B
:101BF00032D5D4E90001CDE900015FEA080003D045
:101C00000146684600F036FAB96B89B10A6802925B
:101C100049680391B6F91210204611B1084600F048
:101C2000A5FE02A9FFF7A2FB02A9684600F022FA6E
:101C3000B6F9121019B16846FFF7C2FB60B1B7F9E7
:101C40003C106846FFF7BCFB30B1DDE90001C5E997
:101C50000001FFF783FFE0E66869401E686100202D
:101C6000DBE610B500F078FD1C490020886310BD4C
:101C7000FEB505460A69888B002A2CD082072AD532
:101C8000154EC0044FF00F07B27801F1080402F1BD
:101C90000102B2700AD5ADF8045000970294FFF724
:101CA000E0FF69462846FFF77DFC11E02046FFF77C
:101CB0007CFF0BE0ADF8045000970294FFF7D1FFD2
:101CC00069462846FFF76EFCFFF748FF0028F1D170
:101CD000B078401EB070FEBD24010020E027002037
:101CE00040280020F0000020EC0000202DE9F04703
:101CF000D94C81460D46B4F93C0000F037FE08305F
:101D00002946804600F000FD00281BD0D4E910676A
:101D10004246294605F1080000F0C9F9DFF83C8386
:101D20002946A8F81290B5F900002064B5F9020020
:101D300060644846FFF79CFF0021A8F81210C4E930
:101D400010670120BDE8F0872DE9F0470446808B3D
:101D50008007F7D5B4F9186004F108091BE0304694
:101D600000F004FE0546808BC043800711D1494630
:101D7000284600F0C9FC60B1D4E9027080462946CB
:101D80003046FFF7B3FF10B12846FFF7DDFFC4E987
:101D90000278B5F91A60002EE1D1D3E770B5446836
:101DA000B0F9002040F60101A08B0840012803D0C3
:101DB00021461046FFF75CFFA848406A002823D060
:101DC0002046FFF7C1FFB4F91660B4F91A4019E0D4
:101DD000204600F0CBFD0546808BC043800703D131
:101DE00029462046FFF782FF2846FFF7ADFFB5F9E9
:101DF0001A40002CECD1304600F0B8FDB0F91A4082
:101E0000B0F91660002EF4D170BD2DE9F041924F6B
:101E10008046B7F93C0000F0A9FDD0E9025604461F
:101E2000D7E90101C4E902014046FFF7B7FFC4E961
:101E30000256BDE8F081F0B5884E99B0306A00B125
:101E400080478748006808B1804710B900F031FC2E
:101E500010B1012019B0F0BD707820B3F08810B334
:101E600001F05CF9B6F90850B6F91400012400B18C
:101E70000546684600F064FC0BE0284600F076FD5D
:101E800007460146284600F0A7F800B1641EB7F9DE
:101E900014500DB1002CF0D1B582684600F054FC0E
:101EA00001F034F9D5E70020D4E710B5002400E0B4
:101EB0000124FFF7C0FF0028FAD1204610BD70B5FD
:101EC000B0F9045004468668284600F04FFD0246EB
:101ED0002068172811D004DC0E2810D0142809D14E
:101EE00004E0222811D0282804D111E03146104600
:101EF000FFF7AFFC0020A06070BDA56070BD21465B
:101F00002846BDE8704001F02FBC6FF07040F2E74A
:101F10002846BDE870400021A7E410B504460068DB
:101F20000E2802D00F2814D108E0A06841680129CA
:101F300013D10068BDE8104000F0A7BB47486FF020
:101F400070411C300068884203D0FEF70DFDFEF79B
:101F5000E3FD2046BDE81040B1E710BD3F49012038
:101F6000487070473D4910B50020487001F0D6F820
:101F700001F0AAFABDE8104001F0C8B83EB5374CF0
:101F8000E078002827D134492081A0828863E0804E
:101F9000A0800346334A02218DE80E0040F6FF720E
:101FA00013460146FFF728FD04F10A0504F11C025F
:101FB00028806FF070411160FFF788FC2A4801F01B
:101FC000ABFB2A4801F0A8FBB5F90000FFF7B7FA10
:101FD00001206070E0703EBD70B50646888B00251C
:101FE00086B00C46800634D5206900B3314604F132
:101FF0000800FFF7E5F9D0B1ADF80460304602946F
:10200000FFF79DFAA08B400712D5D4E90201CDE974
:102010000301A08B40F30003E08A5B1C00B900239E
:102020000093002301AA124903A801F0D7FA03E0A4
:1020300001A8FFF7B3FE0125A08B20F02000A083AC
:10204000810402D540F00400A0830448C188491EE1
:10205000C18006B0284670BDE02700202401002082
:10206000E00000201B1F0008740100207C010020FC
:102070000B1E0008B0F90030B1F90020934200DADD
:102080000280B0F90230B1F90220934200DA4280B6
:10209000B0F90430B1F90420934200DD8280B0F938
:1020A0000620B1F906108A4200DDC180704770B584
:1020B000B1F90030B2F90040A34200DD1C460480B3
:1020C000B1F90250B2F902309D4200DC1D46458054
:1020D000B1F90460B2F904309E4200DC33468380DB
:1020E000B1F90610B2F90620914200DD1146C18017
:1020F000A34201DBA94201DA002070BD012070BDBE
:1021000070B50C46054600F009F8C1B223462846D2
:10211000BDE87040002200F024B80000011E10B598
:102120004FF001000B4600DC4B42294A00E0401C06
:1021300052F820409C4201D80928F8DB002900DA37
:10214000401C10BD10B5002802DA2D22404200E0EC
:102150002B220B685C1C0C601A70096800220A7044
:1021600010BDF0B5002807DA1C682D25661C1E601E
:1021700025704042012400E00024091BC9B20AB1C5
:10218000491EC9B2124E56F82140844200D8601E42
:10219000DFF840C0B9B10C46491EC9B2944205D11E
:1021A0001C689CF80070651C1D60277056F8215053
:1021B00090FBF5F4E4B204FB15001D6830346F1C8D
:1021C0001F602C70E6E7196800200870F0BD000061
:1021D0009C0D0108DC00002070B5054600F09EFF54
:1021E000284600F0B4FB040005D000F0BFFB2A46EF
:1021F000002101F0DAFA00F089FF204670BD0000EE
:102200002DE9FC47050073D000F088FF00F076FC54
:10221000384E0746B6F9229000F0A3FCB18C8046F8
:10222000081AB0843BE047F6FF71284601F0CFFB67
:1022300082460146284601F0E2FB0446B08D00F0DC
:10224000030001283ED0022838D00020718C6A4655
:10225000081A7084ADF80000611E0844ADF804004F
:10226000B08CADF80200791E0844ADF80600514666
:10227000284601F0DBFBBDF80200B0845146284639
:1022800001F05BFB054428780A281DD00D281BD0DF
:10229000BDF8000020447084287818B16D1C28789F
:1022A0000028C0D1B18C01EB0800B084B08D20F0C3
:1022B0000300B085BDE8FC4700F028BF04EBD470F4
:1022C0004010C3E72046C1E7B08D00F003000128AD
:1022D0000BD0022809D0308C708428780A28DBD1F2
:1022E000B08C3844B084D7E702E0A6F82290F4E737
:1022F000BDE8FC87E027002030B5874D2C680C2C0A
:1023000010DA864B210009D003EB410232F9022C8E
:10231000824203DB23F81120491EF5D123F8110076
:10232000641C2C6030BD2DE9FE4F894640F6FF74D9
:10233000064617469A46C4F1000B00210AE006EB58
:102340008100B0F90200A04200DA0446584500DDE1
:102350008346491C4945F2DB7148006960B1B0F918
:102360000620D11A594500DA8B46B0F90210A1EBCC
:102370000A00A04200DD0446A9F101000190A6E098
:1023800065490020054608607FE0019900208D42E4
:1023900000DA681C06EB850306EB8008B3F902102F
:1023A000B8F902208446A1423BD1A24213D15C4A33
:1023B00036F9250004EB0A01C319926D36F92C0099
:1023C0003844D2F800C0834202DA0246184600E0E0
:1023D0001A46E04758E0294600200BE04B1E09B999
:1023E000A9F10103194606EB8303B3F90230A342B6
:1023F00004D1401C019B9842F0DB2346A34243D00A
:1024000036F92500A3EB0401A2EB0402514039D4B4
:10241000434A384404EB0A01926D13680246984718
:1024200032E0A24230D001DBA14203DDA1422BDB2E
:10243000A24229DC91420ADC0846A14224DC114672
:10244000A24221DBB3F900C0B8F9002008E0104631
:10245000A24219DCA14217DBB8F900C0B3F9002091
:10246000231AA2EB0C025A43002AA1EB000302DD5F
:1024700002EB630202E0A2EB6302521C081A92FB19
:10248000F0F06044FFF738FF6D1C4D45FFF67DAF5F
:1024900004EB0A00029000208046054612E01F4926
:1024A000B8F1000F31F91510009107D000993844A8
:1024B0007A181B49896D0B6802999847009888F033
:1024C00001086D1C144909688D42E8DB641C5C45F9
:1024D0007FF756AFBDE8FE8F2DE9F04106460F4667
:1024E00014461D4600F01AFE0D48016C406C0C4469
:1024F00005440020FFF759FB07E02B4622463946EA
:102500003046FFF710FFFFF729FB0028F5D1BDE8A3
:10251000F04100F0FBBD00004C01002058280020D5
:10252000E0270020C388042B28D004DC012B08D02E
:10253000022B04D113E0082B2CD0102B30D000201C
:10254000704783888068534303EBD10201F0070191
:10255000805CC1F10701C84000F00100704783882A
:102560008068534303EB9102805C062202EA41013A
:10257000C1F10601C84000F00300704783888068FD
:10258000534303EB5102C907825C02F00F00F4D100
:10259000100970478388806802FB0311405C704714
:1025A00083888068534303EB4101084400887047E7
:1025B00010B500F0B3FD01F08BFA044600F0A6FD63
:1025C000204610BD10B500F0A9FD01F081FA00F021
:1025D0009DFF044600F09AFD204610BD10B500F0A6
:1025E0009DFD01F078FA044600F090FD204610BDF4
:1025F00010B500F093FD01F06EFA00F087FF04467D
:1026000000F084FD204610BD10B5002821D009B38C
:1026100002B3B1F90030B2F90040A34200DD234615
:102620000380B1F90230B2F90240A34200DD234633
:102630004380B1F90430B2F90440A34200DC2346E0
:102640008380B1F90610B2F90620914200DC1146F0
:10265000C18010BD01B911460A6802604968416035
:1026600010BD00280BD003880B44038083881944D5
:102670008180418811444180C1881144C1807047E4
:102680002049002248684A6070471E494A68002A6B
:1026900000D14860704700B5FFF7F2FF0028FBD17A
:1026A00000BD184A0832C2E900011649012008603D
:1026B000704770B5002400F031FD1248016879B10F
:1026C000491E00F108040160D4E90051284602F0D7
:1026D00059F86068012802D12846FFF7D6FF012487
:1026E00000F014FD204670BD70B504460D4602F0A2
:1026F00049F8002804D129462046BDE87040D0E7BB
:1027000070BD000050010020B0F90220B1F9063080
:102710009A4213DCB1F90220B0F906309A420DDC7E
:10272000B0F90020B1F904309A4207DCB1F9001089
:10273000B0F90400814201DC01207047002070479D
:102740006022044902F09DBB01466022014802F06C
:1027500098BB0000E027002010B50020FEF704F928
:102760006FF07F40FEF70BF9012001F055F80020D3
:1027700001F084F8002001F08FF8002001F064F8E7
:102780000848FEF707F9BDE81040002001F068B8DE
:1027900010B500F0C3FCFFF7DFFFBDE8104000F00C
:1027A000B5BC00002815010800787047012070476B
:1027B0000120704701700120704710B500F0AEFC99
:1027C00004490348C861BDE8104000F09FBC000008
:1027D000E40D0108E02700202DE9F04781464FF085
:1027E000FF380020C14F1BE037F81100518806EB7D
:1027F0004605014437F91500411A0CB24C450EDA72
:102800006CB1BB49014407EB4500B0F90220081B3D
:1028100002F0F5FA37F81500001B27F815003046CE
:1028200000EB400107EB41021679002EDCD100EBF2
:10283000400207EB410137F91220B1F902101144AF
:1028400041F28832521A4A4500DB80460FFA88F07E
:10285000BDE8F087A7489D2104224160816041F2D4
:102860008831C18101820021016081819F484280BD
:1028700001800171A0490120087070472DE9F041E5
:10288000044600F02CF9E41CDFF8688224F0030011
:1028900004B2B8F90E00A04257DB944E012000EBC1
:1028A000400106EB4101498851B1401C9E28F6DBEE
:1028B0000025F5B3204600F0E7F8411C02D006E001
:1028C00005B2F6E72046FFF787FF411C3DD000EB3D
:1028D000400206EB420C36F81210BCF8022005EB61
:1028E00045078B1806EB47029CF80410548026F825
:1028F0001730117121B101EB410106EB41014D711E
:1029000050718CF80450D8F800004146401CC8F8BB
:102910000000D8F80400401EC8F80400D8F80820C9
:10292000824200DD8860888920448881C889001B34
:1029300000E00AE000B2C881B1F91020824201DD56
:10294000A8F810002846BDE8F0810020FBE710B58C
:10295000040009D000F0E2FB2046FFF78FFF044699
:1029600000F0D4FB204610BD002010BD002806D08A
:102970005E4900EB400031F910005D4908447047A2
:1029800010B500F0ACF85B48B0F90E0010BD70B5A2
:10299000002400F0C3FB00F0A2F80020534D0DE02E
:1029A00035F812005A88104401EB410235F8122024
:1029B000101A00B2A04200DD0446084600EB4002B7
:1029C00005EB420319790029EAD100EB400005EB41
:1029D000420135F810004988084441F28831081A4C
:1029E00000B2A04200DD044600F090FB204670BD1E
:1029F000002806D03D4900EB400001EB4000B0F953
:102A00000200704710B5040008D000F087FB204694
:102A100000F013F8BDE8104000F078BB10BD10B511
:102A2000044600F07BFBB4F90000FFF7EBFF002049
:102A30002080BDE8104000F069BB2C4B00EB40004B
:102A400010B503EB4001B1F9020000281BD0294A60
:102A5000D4890444D4819489201A9081002048802C
:102A60000879497901EB410403EB4404207120B15A
:102A700000EB400003EB400041715068401C506087
:102A80001068401E106010BD30B50021174D0CE0DD
:102A900035F91330B4F90240234402EB420435F90E
:102AA0001440E31A834215DA114601EB410305EBAA
:102AB00043042279002AEBD101EB410205EB4303E9
:102AC00035F91220B3F902301A4441F288339A1AC8
:102AD000824201DB08B230BD4FF0FF3030BD064806
:102AE0000078002800D1B5E670470000F83B0020D0
:102AF00070280020AC3F00206001002010B500F0DD
:102B00000DFB2C488069447D00F000FB204610BD81
:102B100010B500F003FBFFF7F1FF26498A8C104443
:102B20008884088C4884BDE8104000F0EFBA10B5E6
:102B300004460A2811D00D2C12D000F0EFFA1D48DF
:102B400080690168204688471B48016809B1204612
:102B50008847BDE8104000F0D9BABDE81040D7E77B
:102B600010BD10B5002400F0D9FA1249888D00F08C
:102B70000C00042804D0082806D00C2807D103E054
:102B80008869047D641E02E08869007D440800F0C5
:102B9000BDFA204610BD10B5044600F0BFFA054945
:102BA0008869416820468847044600F0AFFA20460D
:102BB00010BD0000E0270020E40000202DE9F04FC8
:102BC000DFF84CB18BB04FF0FF36BBF922200692F4
:102BD000DBF81820BBF924A09469A189884206D3A8
:102BE000E389834203D3451AD4F8008013E0D4E983
:102BF000018179B10B8898420CD34D88854209D365
:102C0000C01A496880B201EB8000B0F90050B0F9F9
:102C1000026000E03546681C55D0107DA17C00FBA9
:102C200001F9217CCDE90710BBF92A70384600F084
:102C3000F3FAC0B205FB0982099002AD344BA17CC6
:102C400001200FC5DBF818005146C37D827DCDE918
:102C5000002395E80D0000F048FB701C15D047F0EC
:102C6000020000F0D9FA06FB098202AD284BA17CD4
:102C700001200FC5DBF818005146C37D827DCDE9E8
:102C8000002395E80D0000F030FBDBF818005D46EE
:102C9000417D007D814213D9022F11D087F00400BD
:102CA00000F0BAFAA869037D427D857D03FB02A18D
:102CB00002EB0A03DDE9060202FB050200F0F5FA69
:102CC000099800F0A9FABBF82210627C1144ABF815
:102CD00022100BB0BDE8F08F0D4880698069407C00
:102CE000704702200880704780698289914202D330
:102CF000C2898A4207D2806838B102888A4204D8E1
:102D00004088884201D301207047002070470000AE
:102D1000E02700202DE9FC5F0546DFF8EC83104436
:102D20000090D8F8580017460E4601EB0309426898
:102D30001C46494600989047E81B0190D8F8580077
:102D40004946426801989047D8F8580006EB070BAF
:102D500005EB04094268594648469047D8F85800A0
:102D6000A6EB070A5146426848469047002C1AD005
:102D7000D8F85800371B46464268394600989047B5
:102D8000B06D3946426801989047B06D2C1B59468A
:102D9000426820469047B06D5146426802B02046D6
:102DA000BDE8F05F1047BDE8FC9F2DE9F047804685
:102DB000894640F2C32050434FF47A7190FBF1F6FC
:102DC00002FB02F002EBD27100EB6107761C1446A5
:102DD000002349464046FFF79DFF012513E005FB10
:102DE00005F004FB0400B84206DD23462A464946A6
:102DF0004046FFF78FFF641E23462A464946404659
:102E0000FFF788FF6D1CB542E9DDBDE8F0877CB5B2
:102E100005460E46144600F081F9BB49086C05448E
:102E2000486C0644281BADF800002819ADF80400D2
:102E3000301BADF802003019ADF806006846FEF709
:102E4000B4FE06E0224631462846FFF7AEFFFEF705
:102E500085FE0028F6D100F059F97CBD2DE9F84F28
:102E600006460F4640F2C32050434FF47A7190FB60
:102E7000F1F000F1010802FB02F002EBD27100EB6D
:102E80006100DFF884B2B11800901446B01ADBF884
:102E9000582013680A4639469847012532E005FB59
:102EA00005F004FB04010098814218DD444515DD5E
:102EB000DBF8583006EB0509A6EB050A1B68A9F1FB
:102EC000010239190AF101009847DBF85830A9F1DD
:102ED0000102391B1B680AF101009847641EDBF8E8
:102EE000580006EB0409A6EB040A036879194A4660
:102EF00050469847DBF85800791B4A46036850460D
:102F000098476D1C4545CADDBDE8F88F70B504468D
:102F10000E46154600F002F97B4B186C0444586CC1
:102F200006440020FEF741FE06E02A4631462046D0
:102F3000FFF794FFFEF712FE0028F6D1BDE87040BF
:102F400000F0E4B82DE9FC5F074602FB02FB88466F
:102F50000BFB03F000FB03F11E4601EB5009144686
:102F60000025DFF8A4A123E005FB05F00BFB00F230
:102F700006FB06F100E0641E04FB04F001FB0020E8
:102F8000002C01DD4845F6DC3A19381BCDE900205C
:102F9000DAF8583008EB05011B6898473DB1DAF8BC
:102FA0005800A8EB05010368DDE9002098476D1C77
:102FB000B542D9DDF7E62DE9FC4104460D4616463B
:102FC0001F4600F0ABF85048016C406C0C440544BF
:102FD000A01BADF80000A019ADF80400E81BADF887
:102FE0000200E819ADF806006846FEF7DEFD07E0CE
:102FF0003B46324629462046FFF7A4FFFEF7AEFDCA
:103000000028F5D100F082F8BDE8FC812DE9FF5FD2
:103010008B4602FB02F103915943804601FB03F00A
:1030200000EB51009A4614469146002502903CE080
:1030300001D1002410E0039905FB05F041430AFB90
:103040000AF200E0641E04FB04F002FB0010002CF6
:1030500002DD029B9842F5DC2DB3A8EB0400009042
:10306000ABEB0506A8EB0900711C33460190009AF2
:10307000FDF77EF90BEB0507DDE90020791E3B46E5
:10308000FDF776F908EB0400009008EB0900711CCD
:1030900081463346009AFDF76BF9791E3B46484658
:1030A000009AFDF765F9A1466D1C5545C0DDBDE8E8
:1030B000FF9F2DE9FC4104460D4616461F4600F0D1
:1030C0002DF81148016C406C0C440544A01BADF870
:1030D0000000A019ADF80400E81BADF80200E819E3
:1030E000ADF806006846FEF760FD07E03B46324655
:1030F00029462046FFF78AFFFEF730FD0028F5D16C
:1031000000F004F880E70000E02700203649486816
:10311000401E486001D104F0E3BA704770B5324EEA
:10312000706820B104F0B2FAB168884204D004F0AB
:10313000CDFA04F0ABFAB0607068401C70600128F2
:103140002CD10024294D04F0A1FA04EBC40101EBB9
:10315000041155F82110814204D001B3641C042CE1
:10316000F1DB00243068844218D0002815DB00EB26
:10317000C00101EB001005EB8000001D60221C491E
:1031800001F07FFE04EBC40000EB041005EB8001AE
:10319000091D6022164801F074FE346070BD04EB16
:1031A000C40101EB041145F82100DBE70E494FF0A3
:1031B000FF30086004F07CBA2DE9F04100240B4D8B
:1031C000264604EBC40000EB041705EB8700001D46
:1031D0006022074901F055FE641C45F82760042C65
:1031E000EFDBBDE8F081000064010020C03F00205B
:1031F000E027002010B50446012000F0A3F9D649CD
:1032000021F8104010BD10B50446002000F09AF9D6
:10321000D14921F8104010BDCF4910B50246087BB6
:1032200080EA02035B0703D50B884C880C804B8037
:103230000A7310BDC84A30B4B2F906308B4217DCAD
:10324000B2F90A308B4213DBB2F9043083420FDC4F
:10325000B2F9083083420BDB137BDC0713469B6C0F
:1032600002D09A6A30BC104752885B6A30BC18475B
:1032700030BC704730B4B84CB4F906308B42F7DC40
:10328000B4F90A308B42F3DBB4F90430834200DD39
:103290001846B4F90830934200DA1A468242E7DB56
:1032A000A36C1B6930BC1847E2E730B4AA4DB5F9EE
:1032B0000440844200DD2046B5F90840944200DA1B
:1032C00022468242D4DBB5F906408C4200DD21461D
:1032D000B5F90A409C4200DA23468B42C8DBAC6C4D
:1032E000A469A44630BC6047C2E72DE9FF4F0546FC
:1032F0009A4887B00026D0F800C0189C0F469B461D
:10330000BCF1000F0CD0DDE91601199B02AA059350
:1033100013C2DDE91423CDE90023DCF8004079E095
:103320000998FA182918DDE91403521E491E18439A
:10333000012807D01698C0F10800CDE901700020DF
:103340000390BEE0844EB6F90630D81B002808DD95
:10335000ABEB000BBBF1000F61DD1F46179B00FBC1
:103360000344B6F90A00101A002804DDABEB000B89
:10337000BBF1000F53DDB6F90800081A002802DD82
:103380000999081A0990B6F904000022A84234DD10
:10339000421B0998801A0990169804281FD004DC53
:1033A00001280CD0022828D111E06B49B1F9041092
:1033B000491B294408281AD010281ED119E022F0F0
:1033C000070004EBE204054402F0070215E022F0D6
:1033D000030004EBA204054402F003020DE022F016
:1033E000010004EB6204054402F0010205E014440C
:1033F00001E004EB42040D460022099800280EDD8E
:103400001798199BCDE90104CDE90323169B00937E
:10341000B06CC4685B4639462846099AA0470BB091
:10342000BDE8F08F15990198084405904A49401E5F
:103430000090B1F9062082423BDC0846B0F90A1040
:103440000198814235DB0027A146A846BA462DE007
:1034500017B919F8016B0827029936FA01F0169985
:1034600006FA01F6F6B2A7EB010703D13A49097B48
:10347000890717D4384949880491199921B131F83D
:1034800010103548418001E0334948801499404686
:1034900008EB0102DDE90031521EFFF706FF2E495D
:1034A0000498488014990AF1010A884409998A45C8
:1034B000CEDB0398401C03900598019017980444B4
:1034C00003985845AEDBAAE72348816C001D096AC2
:1034D000084710B5FFF7F8FF04F0BFFB044600F003
:1034E0001BFB0420FFF798FE40F6FF7200211346F5
:1034F0000846FFF7DAFE0020FFF78EFE04F0B2FB6D
:10350000204610BD1449896C096808471249896C26
:1035100049680847104910B54A6B824205D0486394
:10352000FFF7F0FFBDE810406DE610BD0A4910B589
:103530000A6B824205D00863FFF7E4FFBDE8104044
:1035400058E610BD044A0146A0F10100127B520763
:1035500000D4084670470000E0270020E800002063
:1035600030B40D4CB4F90430834213DCB4F90830A4
:1035700083420FDBB4F906308B4200DD1946B4F903
:103580000A30934200DA1A468A4203DBA36C5B6975
:1035900030BC184730BC7047E027002000F0F7B877
:1035A00000F0BEBA00F0FEB800210180418040F278
:1035B0003F118180EF21C180704700007CB5064C2F
:1035C0000546A06C026A684690476A462946201D57
:1035D000FEF76DFD7CBD0000E02700202DE9F84FCF
:1035E0000400DDF828A0894693461F4621D0002616
:1035F000B4F900103046002900DB08468046B4F9D3
:103600000200002800DB0646FDF758FE411EB4F913
:10361000040000F057F80546FDF753FE411EB4F9CB
:10362000060000F04FF8A5EB0804641C851B6D1C18
:1036300008E04FF000084646FDF740FE0446FDF75F
:1036400040FE054607B96F42002C01DD002D02DC6B
:103650000020BDE8F88F3B46224631464046CDF873
:1036600000A000F02CFB5FEA000A07D001F00CF884
:103670000746504600F054FB00241AE058464946DD
:1036800088470120E5E7291BB94202DA504601F0DC
:1036900011F83CB132194146504601F025F8504628
:1036A00000F0D6FF584649468847504600F024FCB3
:1036B0003C44AC42E7DB504600F084FA002000F0C6
:1036C0002FFBC5E7024608468A4200DC10467047D9
:1036D0002DE9F0410746FFF721FDCFB13846FFF74E
:1036E00045F90546384601F02BF8040010D038465D
:1036F00001F039F8FFF73AF906462046FFF736F9A8
:10370000698B4183308B688337832846FDF7EFFE52
:10371000BDE8F041FFF7FABC0B490A680260086097
:103720007047094B1968002905D00022814206D153
:1037300008680AB1106070470028186070470A4690
:1037400009680029F2D170473C0100200148B0F916
:10375000000070472E0100200EB526220291009233
:10376000694600F001F80EBD70B505460C000DD09D
:10377000FFF7D4FC284600F0F6FF18B1E58021469B
:10378000FDF710FFBDE87040FFF7C0BC70BDC0F38F
:10379000C401C0F38522C0F3C44000EB421000EB2B
:1037A000C12070474FF6FF70704710B502E000F877
:1037B000011B521E0AB18307F9D1930817D001EB00
:1037C000014402F0030204EB042405E004604460B9
:1037D0008460C46010301B1F042BF7DA01E010C0B6
:1037E0005B1E002BFBD102E000F8011B521E002AD9
:1037F000FAD110BD10B5FFF791FC1248047DFFF718
:1038000085FC204610BD10B5FFF788FC0D48447DAF
:10381000FFF77CFC204610BD70B50546FFF77EFC27
:103820000848047D0575FFF771FC204670BD70B532
:103830000546FFF773FC0348447D4575FFF766FCBA
:10384000204670BDE027002010B50446FFF766FC57
:103850002046FFF7E1FC0446FFF758FC204610BD68
:1038600070B50546FFF75AFC0348847D8575FFF760
:103870004DFC204670BD0000E027002070B50546D5
:10388000FFF74CFC0348B0F92C408585FFF73EFC60
:10389000204670BDE027002070B50546FFF73EFCCE
:1038A0000348B0F92A404585FFF730FC204670BD3B
:1038B000E027002010B50446FFF730FC3149C86905
:1038C0004168204688470446FFF720FC204610BD8B
:1038D00010B50446FFF722FC2A49C8690168204652
:1038E00088470446FFF712FC204610BD70B5044619
:1038F0000D46FFF713FC23482946C069C2682046DD
:1039000090470446FFF702FC204670BD1D49C96977
:10391000896808472DE9F0411A4E04460568F069A8
:103920000168284688470746F06941682846884765
:10393000284420603846BDE8F0812DE9F041064674
:103940000D4600240F4F05E0F8694168304688476E
:10395000064404446D1EF7D22046ECE72DE9F04101
:10396000002506460F462C46DFF8188006E0D8F8FA
:103970001C1030194968884704446D1CA742F6DCC6
:103980002846D8E7E0270020F7B54E4D0C461146F3
:10399000286918B1FEF7B8FE002806D0A8690069AA
:1039A00020B18268214600989047FEBD464E0BE04C
:1039B0006846FFF7AFFF0746A869016838468847A1
:1039C000316809B138468847641EF1D5FEBD73B52C
:1039D0000D46009A002482B13A488069006950B1CE
:1039E0004368104698477CBD6846FFF793FF20B1B7
:1039F0000A2802D0641CAC42F6DB20467CBD73B5BD
:103A00000C46009A00257AB12E488069006948B1B9
:103A10000368104698477CBD6846FFF77BFFFFF7B9
:103A2000BAF80544641EF7D528467CBD7CB505462A
:103A300026480E46006868B10020FEF7B6F806E09A
:103A40006A4631462846FFF79FFFFEF787F80028B1
:103A5000F6D17CBD106800901A4C50680190BDF8FA
:103A60000010206C0144ADF80010BDF80220616C1C
:103A70000A44ADF80220BDF804201044ADF804005B
:103A8000BDF806000844ADF806006846FEF78DF85C
:103A90000CE0BDF800006084BDF80200A0846A4616
:103AA00031462846FFF770FFFEF758F80028F0D19E
:103AB000608C216C401A6084A08C616C401AA084D8
:103AC0007CBD0000E0270020E4000020E80000208A
:103AD000024800887047014840887047E02700206E
:103AE0002DE9F041002806D086681EB10568B5F5BD
:103AF000807F02DD0020BDE8F0810024074F06E052
:103B000056F82400FFF7FEFC27F81400641CAC42B2
:103B1000F6DB0248EFE7E3E7704700005041002082
:103B20001F2300F01F02C0F3451110B5C0F3C420DD
:103B3000C0EB0020C1EB01213F24B0FBF3F0B1FB4F
:103B4000F4F1C2EB0222B2FBF3F200EB012000EB36
:103B5000024010BD10B50446E948B0F94C00FEF72C
:103B600005FF018821804188618001888288114495
:103B7000491EA1804188C0880844401EE08010BDD5
:103B800010B50446DE48B0F94C00FEF7EFFEC169FF
:103B90002046BDE81040084710B50446D848B0F9A3
:103BA0004C00FEF7E3FE016A2046BDE810400847DE
:103BB000D34810B5B0F94C00FEF7D8FE406ABDE816
:103BC0001040004710B50446FFF7A8FA8CB1CC4866
:103BD000B0F94C00A04201D100F00DFE2046FEF7E6
:103BE000C5FEB0F9180008B100F020FE2046FEF72F
:103BF00009FFBDE81040FFF789BA2DE9FF4F81B0FA
:103C00009246DDE90E4B1D46DBF83C90002602FB98
:103C100009F0C01DC708FEF7BAFEE10705D1C117BC
:103C200000EB9170801000EB4000002D06DC2C387A
:103C3000B0FBF7F06D42A84200DC0546E00708D172
:103C400000230093DDE901012B46524600F0C9FE36
:103C50000646002D05DCFFF759FA002005B0BDE847
:103C6000F08F05FB07F02C30E10700B202D0FEF721
:103C70006EFE01E0FEF7B0FA5FEA000819D0FEF729
:103C800075FE0199018002994180A0F804A00446C4
:103C9000C580FDF71FFBC4E9020726831098E06189
:103CA000119820621298C4E9090B0020C4E904901D
:103CB00003E016B13046FEF7A5FE4046CEE72DE9FB
:103CC000F04385B005460E4617469846DDF830901D
:103CD000FFF724FA8B488A490468B1F94C00A8B16F
:103CE000FEF744FE1C300EC8A06B01ACCDF800906E
:103CF0000FC443463A4631462846FFF77EFF044646
:103D0000FFF704FA05B02046BDE8F083886CEAE7C7
:103D100038B51C46002300932346FFF7D0FF38BD7B
:103D20002DE9F0410546FFF7F9F9754CB4F94C70EF
:103D30004DB12846FEF71AFE0646FEF713F9B4F811
:103D40004C0018B108E000F056FD0BE06068C4F8C4
:103D50004E00A068C4F85200A4F84C50B06AA064A9
:103D6000FFF7B2FBFFF7D2F93846BDE8F0812DE945
:103D7000F74F8AB09246FEF7F9FD0746B0F91800F2
:103D8000B7F906100991D7E903B10891C90807F1FD
:103D90002C060791B0B3FEF7E9FD8046002456E0FB
:103DA00000200690D8F80800224606A9436940463C
:103DB0009847B7F904100546814244D1A14600E076
:103DC000641CD8F80800621C06A94369404698475D
:103DD000A842F5D00023CDE9046308980123CDF86B
:103DE0000CB00093CDE90130A4EB09056B1CB7F9C9
:103DF00004200AEB09010B98FFF777FA6B1C03FB11
:103E00000B6623E028E0DDE906C00CFB006200231E
:103E1000CDE9042308980123CDF80CB00093CDE937
:103E200001300B980AEB040160442A46FFF75DFA63
:103E30000698224628440690D8F8080006A9436947
:103E4000404698470546002DDDD15E44641C099824
:103E50008442A5DB0DB002E70023CDE90463012312
:103E60000898CDE90033CDE9020B1A46B7F90420D2
:103E70005146099B0B98FFF738FAEBE72DE9FC4117
:103E80005FEA00080D46164634D0FFF747F91C4894
:103E9000B0F94C704046FEF769FD044600F0ABFCFB
:103EA00040F6FF70401903D1B4F90050B4F9026034
:103EB000A188681E0844ADF80400ADF80050E18800
:103EC000701E0844ADF80260ADF80600FEF746F833
:103ED0006846FDF76AFE06E0324629464046FFF78F
:103EE00046FFFDF73BFE0028F6D13846FFF718FFE6
:103EF000FFF70CF9BDE8FC8103490A46BEE7000064
:103F0000E02700207001002001F0FFFF2DE9FF5F96
:103F1000984610AB834645CB894698F80050FA4B3B
:103F2000DDE90E175D5DC1F10804CD40F749097B5D
:103F300011F003011FD001294AD0022960D1B0F845
:103F400002A0BC4200D93C463F1BBBF1000F2BD066
:103F500035B3E80708D0DBF808004946029A036841
:103F600058469847A6F800A0B61C09F10109641E3E
:103F700026D06D08ECE7E449BC4200D93C463F1B23
:103F800005F001026D0830F8122026F8022B641E9D
:103F9000F6D1002F34D018F8012F08248D5CEBE700
:103FA00006EB4406A1440BE045B1E80701D0A6F8B2
:103FB00000A0B61C641E03D06D08F5E706EB4406AE
:103FC000002F1DD018F8011FCF480824455CB8E722
:103FD000506A8047CC4980B2BC4200D93C463F1B66
:103FE000EA0702D0328842403280B61C6D08641E57
:103FF000F6D1002F04D018F8012F08248D5CEBE7D0
:10400000BDE8FF9F2DE9F05F80460AA88A46B0E828
:10401000420293461F461A788B009A40D5B2BB4A9B
:10402000C1F102000D9C127BC0B212F0030219D044
:10403000012A79D0022A37D1C1B328090DD0290924
:10404000B8F1000F39F81100208006D0D8F8080028
:104050005A465146036840469847A41C0AF1010A93
:10406000761E49E039B12909761E39F8110024F885
:10407000020B17F8015F022E10DB701006F001062C
:104080002A0939F8121005F00F02218039F81210B0
:104090006180241D17F8015F401EF1D1002E03D06E
:1040A000290939F811002080BDE8F09F26E0280991
:1040B0000DD02909B8F1000F39F81100208006D081
:1040C000D8F808005A46514603684046984715F00C
:1040D0000F000DD039F810006080B8F1000F07D044
:1040E000D8F808005A460AF101010368404698478B
:1040F000241D0AF1020AB61E17F8015F022ED6DA55
:10410000002ED1D02809CFD039F810002080B8F186
:10411000000FC9D0D8F808005A46514603684046F7
:10412000BDE8F05F1847FFE7B04200DDF0B2361A95
:10413000A90903D0218881F0FF0121802907A41C4F
:104140000D0E401E10F0FF00F2D1002EACD0022068
:1041500017F8015FE8E72DE9FF4F87B005466B4888
:10416000DDE9168B8A46B0F94C00149EFEF7FEFB83
:104170008146B0F9180018B1FEF7F8FB044600E0DC
:104180000024D9F80C00059005EB0B0007905CB1FA
:104190005E48007B800707D40A9B00935246204666
:1041A000099B079900F055FB5146079800F0CBF9A1
:1041B0000746102E04D0082E3CD01898C8B399E0BA
:1041C00000202FE0079801900BEB0A0000904F4869
:1041D000DDF824904546007B3E4610F0030002D0F7
:1041E000022819D106E04FEA49024146384600F05C
:1041F000C1FD11E0288838B130802CB1A068DDE91C
:1042000000210368204698470198B61C401CAD1C4D
:104210000190B9F10109EDD1059815990744884439
:104220000BF101000A9983468842CBDB0BB0BDE855
:10423000F08F5DE0002056E01898DDF8249000280B
:10424000079801900BEB0A000090304845463E4627
:10425000007B00F0030024D010B102283DD10AE019
:1042600015F8011B1898B9F1010930F8110026F86A
:10427000020BF5D131E0287850B1189931F81000CF
:1042800030802CB1A068DDE9002103682046984702
:104290000198B61C401C6D1C0190B9F10109EAD1CE
:1042A0001BE010B1022818D105E04A4641463846C5
:1042B00000F060FD11E0287838B130802CB1A068A2
:1042C000DDE900210368204698470198B61C401C90
:1042D0006D1C0190B9F10109EDD1059815990744BC
:1042E00088440BF101000A9983468842A4DB9DE7CC
:1042F0000748189000253EE0012E0BD0022E1AD060
:10430000042E33D125E00000FC150108E027002031
:104310009C150108189909980DF1040CCDF800B00E
:104320000497ACE8030205EB0A02434620460799CE
:10433000FFF7ECFD1AE0099901A8189ACDF800B032
:1043400086C005EB0A0243462046079900F013F9A0
:104350000CE0099901A8189ACDF800B086C005EBC9
:104360000A02434620460799FFF74CFE1599059827
:10437000884407446D1C0A988542BDDB56E72DE949
:10438000F84F0446B1480E4615469A46B0F94C001F
:10439000FEF7ECFA80463146204600F0D4F8074696
:1043A000281B00F10109B8F91800D8F80CB018B3AF
:1043B000FEF7DCFAAAEB06035B1C00934B46324681
:1043C000214600F046FA17E0A048017BC9070CD04F
:1043D000D8F824004D463C46804780B221884140B1
:1043E00024F8021B6D1EF9D104E041884A46384684
:1043F00000F0E4F95F44761C5645E5DDBDE8F88F32
:104400000B46BCE72DE9F74FDFF840820D46924698
:10441000B8F94C00FEF7AAFAB0F9187006461FB1B9
:104420003846FEF7A3FA00E00020814629460098AE
:1044300000F089F8044698F80C00D6F80CB0C007D4
:1044400016D0706A80471FFA80F837B1D9F8080093
:104450002A46009903684846984720886D1C80EAE0
:1044600008002080F06855450444EEDDBDE8FE8F6D
:1044700077B1D9F808002A4600990368484698475A
:10448000B8F8020020806D1C5C445545F1DDEDE775
:10449000AAEB0500401CB8F8021021805C44401EC5
:1044A000F9D1E3E72DE9F041064668480F46154685
:1044B000B0F94C00FEF75AFAB0F9184039463046C8
:1044C00000F041F80580002C0ED02046FEF74EFA91
:1044D00005462046FEF74AFA80683A4631460368A8
:1044E0002846BDE8F0411847BDE8F0812DE9F041CC
:1044F000074656488846B0F94C00FEF737FA04469E
:10450000B0F918604146384600F01DF80546606A6B
:104510008047298841402980002EE5D03046FEF7AB
:1045200025FA04463046FEF721FA806842463946AD
:1045300003682046BDE8F0411847D5E710B500F004
:1045400002F8008810BD70B5044640480D46B0F929
:104550004C00FEF70BFA4188C36800F12C02691A7F
:1045600089B29BB201FB0321B0F9000001EB4401C9
:10457000A1EB400070BD2DE9FF5F8A460EA9814680
:10458000B1E84108C0F10401CCB219784000814083
:104590002E48119F9846007BCDB210F0030004D046
:1045A00001283AD002284FD114E0B44200DDF4B221
:1045B000361BA9093BF8110027F8020BA806050EC7
:1045C000641E14F0FF04F4D1002E3DD0042418F82A
:1045D000015FEAE7B44200DDF4B2361BA8090DD052
:1045E000A909B9F1000F3BF81100388006D0D9F8BD
:1045F00008005146029A036848469847A806BF1C1F
:10460000050E641E0AF1010A14F0FF04E6D1002E23
:104610001AD0042418F8015FDCE7B44200DDF4B2DC
:10462000361BA80903D0388880F0FF003880A80620
:10463000BF1C050E641E14F0FF04F2D1002E03D03F
:10464000042418F8015FE8E7DAE40000E02700201E
:1046500010B5040004D10B48B0F94C40002C10D028
:10466000FEF75CFD2046FEF781F9B0F9180020B195
:10467000FEF77CF9816889688847BDE81040FEF73D
:1046800045BD10BDE027002070B504460025FEF7AB
:1046900045FD1CB90648B0F94C4024B12046FEF750
:1046A00065F9B0F90650FEF731FD284670BD0000EF
:1046B000E027002070B504000D4604D10948B0F988
:1046C0004C40002C0DD0FEF729FD2046FEF74EF998
:1046D000B0F90610A94200DDC580BDE87040FEF7C4
:1046E00015BD70BDE027002070B504000E461546CC
:1046F00004D11248B0F94C40002C1ED0FEF70EFD3C
:104700002046FEF733F92DB2458036B204460680C6
:10471000FEF7DAFEB4F9180058B1FEF727F9B4F93C
:104720000410818029B1B4F90610C18009B1068056
:104730004580BDE87040FEF7E9BC70BDE027002071
:1047400070B5054600F076F909E0AC4201D10024CD
:1047500007E0FEF70BF9B0F91A00A84201D00400F7
:10476000F3D1204670BD10B5040008D0FEF7D6FC8A
:104770002046FEF7FBF8B0F91640FEF7C7FC2046CE
:1047800010BD000070B586B005460E460024FEF749
:10479000C5FC0948B0F9000040B10E21009102AA01
:1047A00003A962C2694600F04FF90124FEF7AEFC8E
:1047B00006B0204670BD00003401002010B583070C
:1047C00002D520F8021B521E530810D001EB014401
:1047D000042B08DB046044608460C46010301B1F3D
:1047E000042BF7DA01E010C05B1E002BFBD1D207CF
:1047F00000D0018010BD10B5FEF790FC00F034F938
:1048000000F042F9FDF7AAFBBDE81040FEF77EBCC0
:1048100010B50446FEF782FC1748B0F94C00FEF7CD
:10482000A5F80483BDE81040FEF770BC10B504463F
:10483000FEF774FC2046FEF799F88189491E09B2FB
:10484000818111B92046FEF7DDF8BDE81040FEF782
:104850005DBC2DE9F0470646089D884614469946FA
:10486000B0682246641C47684B4641463046B8470C
:104870006D1EF5D1BDE8F087E027002010B5B0F936
:104880000030B0F90240C91A00F114030069121B8C
:1048900002FB003000EBE10001F007030278802109
:1048A000D9400A43027010BD70B5B0F9004000F164
:1048B00014050C1BB0F902100069511A01FB0050DD
:1048C000E11800EBE405491EC810B0EBE40604F063
:1048D00007034FF0FF0201F0070122FA03F0C1F1D4
:1048E000070102FA01F22978D4B20FD00143761EF3
:1048F00005F8011B002E05DDFF223146284600F099
:10490000F2FA354428782043287070BD20400143D6
:10491000297070BDB0F9061002695143143000F0DF
:10492000EABA70B5B0F90660B0F904500B6800F14E
:104930001404964220DD0069AB4202FB004000EB0C
:10494000E30419DAA5F101054FEAE500A0EBE30560
:1049500014F8010B03F0070200FA02F0C0B208E0FD
:1049600055B114F8010B03F10803A5F1010523F07B
:1049700007030028F4D007E0002070BD4FEA406034
:104980004FEA106003F101030206F7D5FF280AD0B1
:104990001A4605E04FEA40604FEA106002F101025A
:1049A0004606F7D400E0DA1DD043400706D007E002
:1049B00014F8010BFF280FD102F108026D1EF7D584
:1049C000A2EB030000F101000B6070BD4FEA4060F4
:1049D0004FEA106002F101020406F7D4F0E7FEF797
:1049E00011B82DE9F047804602F10F000011440094
:1049F00003FB04F01430894617461E4600B2FDF74B
:104A0000EBFB050012D0FEF789FB2846FDF7AEFF51
:104A1000A0F80080A0F802908780C68004498160D9
:104A2000012181810461FEF771FB2846BDE8F08712
:104A3000FC16010810B5FFF796FE002803D0FDF71D
:104A400095FFB0F9180010BD70B50C460546FDF78E
:104A50008DFFA5800269204612B1BDE87040104765
:104A6000BDE87040FDF72BBA054801680548816430
:104A70000021A0F84C10011D0161FEF725BD0000CA
:104A800070010020E027002010B5064C206BFEF7D7
:104A900039FDFEF7AFFB606BFEF734FDBDE810405B
:104AA000FEF7B1BBE02700200FB41CB5084B06AAE7
:104AB0007B4469460090059800F0B3FA0446002054
:104AC000694600F0C1FA20461CBC5DF814FB0000EA
:104AD000950500002DE9F04107460025106875296D
:104AE000394616A411D0AFF30080002803DAC0F1D4
:104AF000000013A407E039688A0701D511A402E079
:104B0000490704D510A4012501E0AFF3008000217E
:104B10000A2307F1240607E0B0FBF3F203FB1200BF
:104B2000303070541046491C0028F5D12B462246DF
:104B30003846BDE8F04100F013BA00000000000064
:104B40002D0000002B00000020000000F0B40F46F4
:104B50000168090502D5234C7C4402E0214C7C44C9
:104B60000E34002100F124050BE002F00F064FEA9D
:104B70001212A65D42EA03724FEA13136E5401F15A
:104B8000010152EA0306F0D12246046800232407FB
:104B900004D5702F05D009B111320223F0BC00F00A
:104BA000DFB910320123F9E770B504460D462146FE
:104BB0001068AFF30080024629462046BDE87040E9
:104BC0000023C3E7D21D22F00703D3E90023BDE78A
:104BD0000368126843F0200303600823C3610023C5
:104BE000B4E70000B8CB00002DE9F05F0446894629
:104BF0004FF0000ADFF878B1FB44C0F820A020464F
:104C0000E1688847002875D0252806D0D4E901211D
:104C10009047206A401C2062F1E700265F4620464C
:104C2000E16888472028054608DB312D06D207EBCE
:104C3000050010F8200C08B10643F0E7B00701D5D5
:104C400026F00406C4F81CA00027C4F818A02A2DDA
:104C500009D0284604F0BBFB38B304EB8708303D8D
:104C6000C8F8185019E059F8041B204604EB8702D5
:104C70009161E1688847012F054618D1E069002855
:104C800020DA26F020061DE0D8F8180000EB80009E
:104C900005EB40003038C8F818002046E168884726
:104CA000054604F094FB0028EED1012F0AD02E2DEA
:104CB00008D12046E16888477F1C0546022F46F050
:104CC0002006C4DBA069002803DA404246F0010652
:104CD000A061F00701D026F010066C2D0BD0682DD6
:104CE00009D04C2D39D06A2D35D0742D35D07A2D80
:104CF00033D016E038E0E1682F4620468847B842B6
:104D0000054609D16C2F26D04FF48060E168064338
:104D100020468847054604E06C2F1AD04FF4807077
:104D200006430DB3A5F14100192802D8203546F4F9
:104D300000664A462946204626604E46FBF746FA5C
:104D400080B101280BD0F61D26F0070000F10809FC
:104D500055E74020E4E78020D8E70020D6E706F1B9
:104D600004094CE7284651E7206ABDE8F09F00009F
:104D700040CB0000032A40F2308010F0030C00F01A
:104D8000158011F8013BBCF1020F624498BF11F885
:104D900001CB00F8013B38BF11F8013BA2F104023E
:104DA00098BF00F801CB38BF00F8013B11F00303B6
:104DB00000F06780083AC0F0088051F8043B083AD8
:104DC00051F804CBA0E80810F5E7121D5CBF51F8BC
:104DD000043B40F8043BAFF30080D20724BF11F836
:104DE000013B11F801CB48BF11F8012B24BF00F89B
:104DF000013B00F801CB48BF00F8012B7047431A74
:104E000028BF9A427FF6B6AF032A1044114440F2FD
:104E1000268010F0030F1EBF11F8013D521E00F84E
:104E2000013D10F0030F7FF4F6AF11F0030300F023
:104E30007481083AC0F00B8051F8043D083A51F8EB
:104E400004CD40F8043D40F804CDFFF7F3BF121D38
:104E50005CBF51F8043D40F8043DAFF30080D20739
:104E600024BF11F8013D11F801CD48BF11F8012C04
:104E700024BF00F8013D00F801CD48BF00F8012C27
:104E8000704710B5203AC0F00B80B1E81850203AB6
:104E9000A0E81850B1E81850A0E81850BFF4F5AFDA
:104EA0005FEA027C24BFB1E81850A0E8185044BF64
:104EB00018C918C0BDE810405FEA827C24BF51F8D1
:104EC000043B40F8043B08BF7047D20728BF31F8C5
:104ED000023B48BF11F8012B28BF20F8023B48BF16
:104EE00000F8012B704702F0FF0343EA032242EA75
:104EF000024200F03EB94FF0000200B5134694465E
:104F00009646203922BFA0E80C50A0E80C50B1F121
:104F10002001BFF4F7AF090728BFA0E80C5048BF35
:104F20000CC05DF804EB890028BF40F8042B08BFD3
:104F3000704748BF20F8022B11F0804F18BF00F8CF
:104F4000012B704770477047704710B500F032F979
:104F5000006810BD10B5044600F02CF9046010BDC7
:104F60002DE9F0470D4604469246994600F1240883
:104F70000168880604D5E06921F01001216000E095
:104F80000120A84202DDA0EB050700E00027A1698F
:104F900007EB050202EB0900A1EB0000A06120680D
:104FA000C00602D42046AFF30080002608E0D4E912
:104FB00001211AF806009047206A401C761C2062E6
:104FC0004E45F4DB2068C0060AD52046AFF30080CA
:104FD00006E0D4E9012130209047206A401C20627D
:104FE000381EA7F10107F4DC07E0D4E9012118F825
:104FF00005009047206A401C2062281EA5F101058B
:10500000F3DC2046AFF300802068000602D50220C2
:10501000BDE8F0870120FBE701694A1C02610878BE
:10502000704700B58FB0CDE90131002105910549E8
:105030007944CDE9031011466846FFF7D5FD0FB05E
:1050400000BD0000E5FFFFFF0A6802F8010B0A60DF
:10505000704700000FB4002300B589B00CA900917F
:105060000B99CB60204B7B44204A7A44CDE9063231
:10507000042201926FF0004202921D4A7A446B466C
:1050800008920246002005F020FC09B05DF814FBF0
:1050900070B506464FF0FF300C461546324686B0D6
:1050A0000091CDE9010169460020049004A8FFF7B2
:1050B000D1FF03460498211825B108B10A4600E043
:1050C00022462A6000280DD0002B02DD009888427D
:1050D00008D03246081B69460094CDE9010404A8B3
:1050E000FFF7B8FF06B070BD650100007F0100004A
:1050F0003D010000431A28BF9A427FF6C2AE104419
:1051000010F0030F11441EBF11F8013D521E00F8AC
:10511000013D10F0030F7FF4F6AF103AC0F00A80A3
:1051200010B531E91850103A20E91850BFF4F9AF22
:10513000BDE81040530724BF31E9081020E90810EA
:1051400044BF51F8043D40F8043D12F0030F08BF7E
:105150007047D20728BF31F8023D48BF11F8012C33
:1051600028BF20F8023D48BF00F8012C70474FF0DF
:1051700000020429C0F0128010F0030C3FF4BDAE11
:10518000CCF1040CBCF1020F18BF00F8012BA8BF32
:1051900020F8022BA1EB0C01FFF7AFBE5FEAC17C48
:1051A00024BF00F8012B00F8012B48BF00F8012BA9
:1051B00070470000004870475043002010B5044677
:1051C00000F050F80068005D00F0010010BD42687A
:1051D00042B1016811F8013B23B1521EC0E900122F
:1051E000184670470121C160881E7047416859B157
:1051F000C368026843B98368934205D0521E491CB4
:10520000C0E90021002070474FF0FF3070470000D8
:1052100000487047504300207546FFF7F9FFAE463F
:1052200005006946534620F00700854618B020B5B2
:10523000FAF7F8FFBDE820404FF000064FF00007F6
:105240004FF000084FF0000B21F00701AC46ACE82E
:10525000C009ACE8C009ACE8C009ACE8C0098D469B
:105260007047000010B500F005F8001D10BD00BF2C
:105270007D48000000487047704300202DE9F04F42
:1052800080469B4689B00878FF2806D0491C2D2807
:1052900005D000244FF0000908E000200CE00124B4
:1052A000F8E709EB8903491C00EB43090878FF285C
:1052B000F7D114B1C9F100008146107800242646C8
:1052C000A2462D2801D02B2813D1521C2D2802D004
:1052D000002082460DE00120FBE70A200025A4FB08
:1052E000007C521C06FB00C004FB0500CC1945EBFA
:1052F00000061178FF29F0D1002108464FF0000088
:10530000BAF1000F02D000EB80004008C0F38157D3
:10531000012F01DD4FF0FF3754EA060009EB0B05C2
:105320004FF0000906D14FEACA71C8E9009109B0EF
:10533000BDE8F08F15F5FA7F4FF0020B04DA4FEA63
:10534000CA71C8E900910CE0B5F5FA7F0EDDF248AC
:105350007844D0E90012C8F8001042EACA71C8F8CF
:105360000410FFF727FFC0F800B0E0E7291E02DABB
:10537000C7F1000200E03A4600DA694206A800F0F0
:10538000D1F906AB07CB03AB07C344F23E0059EAA1
:1053900006010090484604D144F21E0126464C46C0
:1053A0000091310C0904014306D10099360446EA04
:1053B000144624041039009106F07F41014306D1C0
:1053C0000099360246EA146624020839009106F074
:1053D0007041014306D10099360146EA1476240152
:1053E000091F009106F04041014306D10099B60023
:1053F00046EA9476A400891E009106F00041084315
:1054000004D1009824197641401E00903A4668461F
:10541000CDE90164002D03A902DD00F0FAFE01E0F0
:1054200000F0CFFEBAF1000F04460D4601D084F023
:10543000004440F2FF7624F00040284303D0C4F338
:105440000A50B04214D1FFF7B5FEC0F800B0C4F363
:105450000A50B0420CD1B1487844D0E90012C8F8E3
:10546000001004F0004142EA0100C8F804005EE7C1
:10547000C8E900545BE72DE9FF4F1F464FF0000AD3
:105480004FF0FF38454691B0D7E90146CDF83CA032
:10549000FFF7F0FEC0680168405C1090B96912988F
:1054A0006D1C8847396A814688470028F6D119F172
:1054B00001000AD0002E24F4D06412DDB9F12B0FC4
:1054C00008D0B9F12D0F0CD102E0404615B02FE7FE
:1054D00044F48064B96912986D1C88478146A6F12E
:1054E0000106600504A901D52D2000E02B20002E27
:1054F00001F1010B0DF130088DF810003FDDB9F11D
:10550000690F08D0B9F1490F05D0B9F16E0F02D07B
:10551000B9F14E0F1CD13B4601A80095A0E85002FE
:10552000DDE912126FF0020005F0D3F9C11CCDD1F4
:105530000EE0B96912986D1C884781461398761E53
:1055400044F4007405600F98401C002E0F9016DD87
:10555000B9F1300FEDD0B9F1780F02D0B9F1580F91
:105560000DD10F9801280AD13B46CDE90054DDE961
:105570001212001F029605F0AAF9C11CA6D11099BB
:1055800089453ED144F0800406E01399681CAAF1D5
:10559000010A44F400740860B969761E12986D1C03
:1055A000884730288146F0D02BE01099894505D1F5
:1055B000200603D4761E44F0800418E0484603F029
:1055C00006FF08B3761E0DF123018B4544F40074E9
:1055D00008D2A9F130000BF8010B200607D5AAF17B
:1055E000010003E0200602D40AF101008246A00572
:1055F00002D51399681C0860B96912986D1C884718
:105600008146002ED1DC54E0002E52DDB9F1650F49
:1056100002D0B9F1450F4CD1A0054AD5B969761E23
:1056200012986D1C24F440748847002E81460DDDCD
:105630002B2804D0B9F12D0F08D144F48074B96936
:1056400012986D1C88478146A6F10106E00501D538
:105650002D2100E02B2108F8011BCDF8008021E06E
:10566000761E0DF13901884544F400740CD2A9F17D
:10567000300010F0FF0088F8000002D10099884542
:1056800009D908F1010806E0E00501D5244801E048
:1056900042F20F708246B96912986D1C88478146A4
:1056A00013980560002E04DD484603F090FE0028A4
:1056B000D6D1F96912988847FF2053468BF800002D
:1056C00088F8000000200A900B9004AA0CA90AA8F0
:1056D000FFF7D4FDA00502D46FF00100F6E614F048
:1056E000240F0AD0E00714D13868DDE90A12031D3F
:1056F0003B600068C0E900120BE00AA9684603F0AD
:105700000FFEE00705D13868009A011D3960006876
:1057100002602846DAE60000B0C40000A8C300001A
:10572000F1D8FFFF2DE9F047814616468AB035488B
:105730007844D0E9002380680092CDE901303148F7
:1057400078440C38D0E90223006903924FF0370205
:10575000CDE9043041F69B30014491FBF2F0A0F119
:10576000800502FB10141B3C02D56442012000E0BE
:105770000020DFF890A080460027FA44AAF1C60A6C
:105780000DE0E00709D03246684607EB47010AEB17
:10579000810100F02AFD8DE8070064107F1C002CB9
:1057A000EFD1184F7F44B43F17E0E80713D007EB61
:1057B00004100DF1180A90E80E00AAE80E00C06867
:1057C000F04201D198190890324606A903A800F0CA
:1057D0000CFD03AB07C36D10641C002DE5D13246F0
:1057E0006946B8F1000F03A802D000F0D6FC01E032
:1057F00000F0FBFCC9E90001C9F808200AB0BDE8C7
:10580000F087000098C000000446AFF300802046F7
:10581000FAF701FD4FF0013C50F8042B51F8043B1E
:105820009A4221D1A2EB0C03934313EACC1317D174
:1058300050F8042B51F8043B9A4215D1A2EB0C030B
:10584000934313EACC130BD150F8042B51F8043BCB
:105850009A4209D1A2EB0C03934313EACC13DBD099
:105860004FF00000704700BFD01A01BAB1FA81F1C1
:1058700001F0180122FA01F0CB40C1F12001DBB2A6
:10588000C0B2C01A2CFA01F3D11A914311EAC31124
:10589000E6D170477047000001491820ABBEFEE713
:1058A0002600020000487047544300202DE9FF4FB6
:1058B0001F464FF03C0987B04FF00042DDE914105D
:1058C00001F10108DDF858A002EA405003900020E1
:1058D00005908346054604460490B969461E08981B
:1058E0008847AAF1010A0290BAF1000F37DD029849
:1058F0002E2815D0102100F018FA00282ADB4FF0CE
:10590000010B0599014316D0B9F1000F0BDB4A4694
:10591000C11700F0F7F905430C43A9F1040905E0AC
:105920000120049007E008B145F001050120059031
:10593000049800B9361DB969089808F1010888472C
:10594000BBF1000FAAF1010A0290CDD00999C1F86C
:105950000080C9E70298702808D0502806D0F9695D
:1059600008988847BBF1000F14D04FE00020029048
:105970000120BBF1000F049009D0B969089808F123
:1059800001088847AAF10109B9F1000F07DCF9699C
:10599000089888476FF001000BB0BDE8F08F2B2806
:1059A00004D02D280CD14FF0FF300490B96908982D
:1059B00008F101088847A9F10109B9F1000FE6DDF6
:1059C000411CE4D00A2100F0B0F90028DFDB029985
:1059D00008F1010801EB810100EB41000290B96977
:1059E000089888470A2100F0A0F9099AA9F101094D
:1059F000B9F1000FC2F8008001DD0028E7DAF9698B
:105A0000089888470499029800FB016655EA04004B
:105A100001D103989FE004F04041090004D1A400A3
:105A200044EA9574AD00B61E04F00041080002D1AE
:105A30006D196441761E159810F0240F03D04FF0B5
:105A40000B095E4803E04FF028096FF07D008246A5
:105A5000564507DAAAEB06018944B9F1410F01DD89
:105A60004FF0410901200021A9F1010200F04AF99B
:105A7000024628400B462140084301D0012000E0A7
:105A800000200290501E43F1FF312840214008437E
:105A900001D0012000E000200299834651EA0B0169
:105AA00052D0002108464FF00000039900F4400056
:105AB00039B100EB80004FF4400100EBD07001EAF7
:105AC00060008015012802DD4FF0FF3000E013D0A8
:105AD000401C39D0029860B3BBF1000F0CD14A468C
